:020000040800F2
:10000000F007002081010008890100088B01000829
:1000100000000000000000000000000000000000E0
:100020000000000000000000000000008D0100083A
:1000300000000000000000008F010008091D0008FA
:1000400093010008000000009301000893010008DC
:100050009301000893010008930100089301000830
:1000600000000000930100089301000893010008BC
:1000700093010008930100089301000800000000AC
:100080009301000800000000000000009301000838
:1000900000000000511E00089301000893010008B1
:1000A000000000009301000800000000A1200008EB
:1000B00000F002F800F054F80CA030C808382418FA
:1000C0002D18A246671EAB4654465D46AC4201D190
:1000D00000F046F87E460F3E0FCCB646012633426E
:1000E00000D0FB1AA246AB463343184758310000F4
:1000F00078310000103A02D378C878C1FAD8520794
:1001000001D330C830C101D504680C6070470000CD
:100110000023002400250026103A01D378C1FBD823
:10012000520700D330C100D50B60704710B5642969
:1001300002D100F031F910BD632902D100F093FB28
:1001400010BD002010BD1FB500F038FD04000020D8
:10015000002102F09FFF401C60601FBD10B510BD64
:1001600000F00CFD1146FFF7EEFF02F0B3FC00F0CB
:1001700038FD03B4FFF7F2FF03BC00F069FD000097
:100180000748804707480047FEE7FEE7FEE7FEE72F
:10019000FEE7FEE704480549054A064B70470000A4
:1001A000D51D0008B1000008F0010020F007002074
:1001B000F0030020F0030020FEB5054610460C4673
:1001C000184373D0AE468C460020AD1A01469C41C0
:1001D00067D36646002701243D46B61A9D4102D3E7
:1001E00013463A462124654676462F04360C3E4394
:1001F0002D0CB61A9D4104D3150C1B042B4312047D
:100200001034654676462F06360A3E432D0AB61A46
:100210009D4104D3150E1B022B4312020834654680
:1002200076462F0736093E432D09B61A9D4104D361
:10023000150F1B012B431201241D65467646AF079F
:10024000B6083E43AD08B61A9D4104D3950F9B00F6
:100250002B439200A41C65467646EF0776083E4382
:100260006D08B61A9D411AD392185B41641C16E0C2
:100270000018764665464941B71A9D4101910090A4
:1002800009D36046B11A98418E4684460098019978
:100290000025401C6941DD0752082A435B08641EA3
:1002A000E6D57246634603B0F0BDFFE70020014685
:1002B000C046C0462A462346F5E700000FB405496C
:1002C00010B503AA029800F0DBFA10BC08BC04B019
:1002D000184700004C000020F8B50E4604460020E8
:1002E00020622046E1688847002829D0252802D0CE
:1002F0006268A16820E0E168204600278847050081
:100300001ED028464138192802D80127FF0220357F
:100310003246204627602946FFF708FF002808D00C
:10032000012804D0F61DF608F6000836D9E7361D78
:10033000D7E762682846A1689047206A401CCFE74B
:10034000206AF8BD70B50C460546012A05D028780C
:10035000800600D5EA69002302E0012305E05B1C6A
:10036000934202D2E05C0028F9D1A869E618C01ACD
:10037000A861286AC01828622846C046C04604E022
:100380006A682078A968641C9047B442F8D328466C
:10039000C046C04670BD0000F7B50025752910683D
:1003A000009914A611D0C046C046002802DA404287
:1003B00011A608E0009909688A0701D50FA602E096
:1003C000490704D50EA6012501E0C046C046009F9E
:1003D0000024243704E000F09FFA30313955641CC2
:1003E0000028F8D12B4632462146009800F0D8F973
:1003F000FEBD0000000000002D0000002B000000EA
:100400002000000070B5064600F0C6F904680546F5
:1004100030460A22002100F047FA2C6070BD401ED1
:10042000CAB24178401C8A4202D00029F9D100208A
:10043000704730B505460B462A461C781078521C8A
:100440005B1C002801D0A042F7D0002C03D000286C
:1004500002D06D1CEFE7284630BD0000034670B5A2
:1004600002460B439B070FD10E4CE60100E008C289
:1004700008C91D1B9D433542F9D0D9B21170521CD9
:1004800000290DD01B0AF8E70B78491C1370521C89
:10049000002B05D00B78491C1370521C002BF3D194
:1004A00070BD00000101010130B5441C03E001787A
:1004B000401C00290DD08107F9D10B4BDD0104C888
:1004C000D11A91432940FAD0001B0A0603D0C01E5E
:1004D00030BD001B30BD0A0401D0801E30BD0902B2
:1004E000FCD0401E30BD00000101010101E004C04C
:1004F000091F0429FBD28B0701D50280801CC90784
:1005000000D00270704700290BD0C30702D00270E0
:10051000401C491E022904D3830702D50280801C97
:10052000891EE3E70022EEE70022DFE7024670B50E
:100530000A4392072AD11E4DEE0104C808C9541B74
:100540009443344017D0D0B2D9B2401A21060143A7
:1005500010D190B299B2401A210401430AD110027D
:100560001902000A090A401A2102014302D1100EA1
:10057000190E401A70BD9A42DFD010BA19BA8842DB
:1005800001D9012070BD0020C04370BD02780B78F6
:10059000401C491C002A09D09A4207D102780B78E6
:1005A000401C491C002A01D09A42EFD0D01A70BDDD
:1005B00001010101002203098B422CD3030A8B4263
:1005C00011D300239C464EE003460B433CD400224B
:1005D00043088B4231D303098B421CD3030A8B425D
:1005E00001D394463FE0C3098B4201D3CB01C01A2B
:1005F000524183098B4201D38B01C01A52414309F6
:100600008B4201D34B01C01A524103098B4201D3E3
:100610000B01C01A5241C3088B4201D3CB00C01A50
:10062000524183088B4201D38B00C01A52414308C8
:100630008B4201D34B00C01A5241411A00D20146ED
:100640005241104670475DE0CA0F00D04942031086
:1006500000D34042534000229C4603098B422DD3D5
:10066000030A8B4212D3FC22890112BA030A8B427D
:100670000CD3890192118B4208D3890192118B42CC
:1006800004D389013AD0921100E08909C3098B4251
:1006900001D3CB01C01A524183098B4201D38B0194
:1006A000C01A524143098B4201D34B01C01A524137
:1006B00003098B4201D30B01C01A5241C3088B427C
:1006C00001D3CB00C01A524183088B4201D38B0067
:1006D000C01A5241D9D243088B4201D34B00C01AF1
:1006E0005241411A00D20146634652415B10104606
:1006F00001D34042002B00D54942704763465B104E
:1007000000D3404201B50020C046C04602BD70473C
:10071000704770470121C9050123411842001B069B
:10072000D3185B0E0AD0C1100722D20689184007E1
:100730005242D14201D5520089187047090208D5AA
:100740000146002A03D0C10FC90700207047104698
:100750007047420202D00020024970470721090574
:100760000143F4E70000F87F0102C21504D0012321
:10077000DB071943002A0ADB9E239A1A02D4084693
:10078000D0407047FF2241001206914201D900205B
:100790007047C017C0437047004870478C01002065
:1007A000FFB504460D4681B02430009021688806CC
:1007B00004D51022E0699143216000E00120A842A5
:1007C00001DD471B00E000270498A1697A19101881
:1007D000081AA0612078C00602D42046C046C04650
:1007E000002608E003986268A168805D9047206A4F
:1007F000401C761C206204988642F3DB2078C006F9
:100800000AD52046C046C04606E06268A16830208E
:100810009047206A401C206238467F1E0028F4DC86
:1008200007E000986268A168405D9047206A401C1C
:10083000206228466D1E0028F3DC2046C046C046D4
:100840002078000602D5022005B0F0BD0120FBE7AC
:1008500010B54369002B02D0C046C04601E0FFF747
:1008600071FD012010BD1278014624310A7000226A
:100870004A700122ECE711680022D243E8E7000049
:10088000084B70B50D467B4400F0E5F80446284659
:1008900000F047F9002802D00020C04370BD204678
:1008A00070BD0000FF1A0000F7B50F460026009C3F
:1008B0002578641C002D05D000F0C0F80068405D6C
:1008C000C007F5D12B2D02D02D2D18D0641E39462E
:1008D000029A204600F0D2F8002F04D03968A142D5
:1008E00001D1009939607105022400290BDA4042D8
:1008F000002803DDFFF750FF0460A007FEBD0120C4
:1009000080020643E3E70028F8DAFFF745FF0460BA
:100910000048FEBDFFFFFF7F01468008081A02095C
:100920001018020A1018020C1018C00882001218C1
:100930005200891A01E0401C0A390A29FBD270478B
:10094000F8B5224C4E00069DA6420AD8A64201D117
:10095000002806D15E00A64203D8A6420AD1002A8A
:1009600008D00D24240425422CD02946002000F074
:10097000DCF8F8BD0C461C430CD4994202D0EFF3CE
:100980000080F8BD904202D0EFF30080F8BDEFF395
:100990000080F8BD09242407E5008B4206D0EFF360
:1009A0000080A043591A06D2284304E0101A05D348
:1009B000EFF30080A04380F30088F8BDEFF30080E0
:1009C000A043F1E7009500F0C7F8F8BD0000E0FF94
:1009D00010B5FF231B0644009C421DD84C009C42CE
:1009E0001AD80346124A0B4307D4401A02D3EFF336
:1009F000008010BDEFF3008010BD081A06D2EFF39F
:100A0000008001219043C907084302E0EFF3008012
:100A1000904380F3008810BD0D231B041A4204D0BC
:100A20001146002000F081F810BD00F09FF810BDC5
:100A300000000090004870478C01002010B500F0C5
:100A4000BDF8001D10BD00BF4D26000001694A1C05
:100A500002610878704700B58FB0029100210591BE
:100A60000549019379440391114604906846FFF7C4
:100A700033FC0FB000BD0000E5FFFFFFF7B51546E2
:100A800082B00027029C2078641C0197302802D095
:100A9000002D15D015E020780127641C782804D09B
:100AA000582802D0002D09D00BE0002D01D0102DC8
:100AB00007D1207800271025641C02E0082500E0FB
:100AC0000A250026009610E00099012769430818BE
:100AD00029467143020C80B200908E183804864279
:100AE00001D3012001902078641C294600F06AF8A7
:100AF0000028E9DA0398002805D0002F01D0641EF1
:100B000000E0029C04600198002806D0FFF744FE34
:100B100002210160C81E05B0F0BD009930040843F1
:100B2000F9E7C068802108407047C80212D5480321
:100B3000400F002804D0C803C043012188407047FB
:100B4000EFF300800001000903210907084380F347
:100B5000008870470020704710B500200249029AB3
:100B600000F047F810BD00000000F87F10B5024803
:100B700000F03FF810BD00000000C07F7546FFF791
:100B800059FFAE46050069465346C008C000854679
:100B900018B020B5FFF7FEFA60BC00274908B6463A
:100BA0000026C0C5C0C5C0C5C0C5C0C5C0C5C0C57C
:100BB000C0C5403D49008D46704700000048704761
:100BC000AC0100203A2800D23038202302469A4354
:100BD000412A01D310463738884201D30020C04350
:100BE000704710B50446C046C0462046FFF7C1FA1C
:100BF00010BD10B50C461107090F092904D00A29A8
:100C00000AD008290CD104E011460820FFF78DFF17
:100C100006E0510606D501E0510601D50120C007C6
:100C2000214610BDD10607D501010909CC084907A5
:100C3000000E0006044309E0410F20024907000AA4
:100C40000143200E00061D22D14101430846E7E77B
:100C500001491820ABBEFEE726000200704710B520
:100C60000B460021846A1C43846200BF0C46144377
:100C70002146416110BD002904D0826801231A4336
:100C8000826003E0826802231A438260704700009A
:100C900000B589B00121480400F0E8FD01214802B7
:100CA00000F004FE01200190032168460172022138
:100CB000C17201A90920C00600F056F9154800F0DC
:100CC0002BF803A800F08DF800200390012168465E
:100CD0000174002005900790089003A90D4800F0CA
:100CE00065F8072201210B48FFF7B9FF094800F01A
:100CF00023F801210748FFF7BEFF00BF0121054887
:100D000000F03CF80028F9D0024800F065F809B07E
:100D100000BD00000024014010B50446054884428F
:100D200007D10121401500F0D1FD0021601500F030
:100D3000CDFD10BD0024014030B501460020002249
:100D400000238C680125ED072C438C6000BF8C6864
:100D5000E30FDB07521C0F242403A24201D0002B17
:100D6000F5D18C68E40FE407002C01D1086C00E099
:100D7000002030BD0146086C80B2704730B5024695
:100D800000200023012424060C40002C05D0946888
:100D900001252D06AC43234600E013681C460C4099
:100DA000002C01D0012000E0002030BD10B5002251
:100DB000C268084B1A400C7964030B6823438C68A3
:100DC0002343CC6823430C6923434C6923431A43D0
:100DD000C26010BD03D2FFFF81680422114381600D
:100DE00070470021016001718160C1600161416152
:100DF0007047000010B5074800F088F8C4B22046DC
:100E000001F03CFAFF20F53001F090FA0020024991
:100E1000486310BD047800080004004030B5044663
:100E200004250B20000400F059F80546042D17D1C5
:100E30000C480069022108430A49086108464461D8
:100E4000006940210843074908610B20000400F0B5
:100E500045F80546034800690221884301490861B5
:100E6000284630BD0020024004200D49C968C9074A
:100E7000C90F002901D0012010E00949C9681022DA
:100E80001140002901D0022008E00549C968042268
:100E90001140002901D0032000E004207047000029
:100EA000002002400348006980210843014908618D
:100EB000704700000020024005480069802108407A
:100EC000002804D00348024948600348486070473E
:100ED0000020024023016745AB89EFCD10B50346E2
:100EE0000424FFF7C1FF044603E0FFF7BDFF0446FB
:100EF0005B1E012C01D1002BF7D1002B00D1052462
:100F0000204610BD10B5FFF7CDFF10BD01460A46C3
:100F10001088704710B5FFF7CFFF10BD70B50446BD
:100F20000D46FFF7F7FF0F480069012108430D49FF
:100F3000086100BF0B48C068C007C00F0028F9D186
:100F4000258000BF0748C068C007C00F0028F9D13E
:100F5000044800694008400002490861FFF7D2FFD9
:100F600070BD000000200240F0B50A4600210023B9
:100F7000002400BF3DE001258D402B4615681D4033
:100F80002C469C4234D11579012D02D01579022DC1
:100F900016D185684F000326BE40B543856055795C
:100FA0004E00B540866835438560858801268E40B1
:100FB000B5438580858896798E40B6B23543858065
:100FC00005684F000326BE40B543056015794E0005
:100FD000B540066835430560C5684F000326BE402E
:100FE000B543C560D5794E00B540C6683543C56088
:100FF000491C1029BFD3F0BDF0B5002300244D07D4
:10100000EE0E1546B5402B46CD10AE0005462035F8
:10101000AD594E07F70E0F26BE40B543CE10B600B1
:1010200007462037BD51CD10AE003D46AD591D439A
:101030002C46CD10AD003E467451F0BD1CB50121CB
:10104000480400F013FC0121684601711020009053
:1010500000216846C171417169460920C006FFF749
:1010600083FF1CBDC1617047002904D002680123C1
:101070001A43026003E0026852085200026070479F
:10108000002905D0426801239B031A43426004E013
:10109000426801239B039A434260704710B50246A1
:1010A0000023002093691C460C402346002B01D0EE
:1010B000012000E0002010BD10B50A4600210368A1
:1010C0005B085B0003600168144B194094682402BC
:1010D00053682343194301600F2424061368A34374
:1010E0000361036801242343036000218160C16020
:1010F0001469936923431946816083680124E403DA
:1011000023438360D16803680B4303604168044B49
:10111000194053691943416010BD0000FFE0CF0042
:10112000FF7FFF07FFB581B0054616461F4600BF8B
:101130000121C9032348FFF7B1FF0128F8D001209E
:10114000400300230122294600901E4800F0ECF8DD
:1011500000BF02211B48FFF7A1FF0028F9D0194862
:10116000029900F0DFF800BF40211648FFF796FF14
:101170000028F9D00920800201235B063246294667
:101180000090104800F0D0F800240CE000BF0421CB
:101190000C48FFF783FF0028F9D00A4800F0BEF89A
:1011A0003855601C44B2B442F0DB00BF2021054832
:1011B000FFF774FF0028F9D020210248FFF752FF03
:1011C00005B0F0BD00540040F8B504460D460026B9
:1011D00000BF0121C9032148FFF760FF0128F8D0B3
:1011E0000120400300230122214600901B4800F00B
:1011F0009BF800BF02211948FFF750FF0028F9D0E3
:101200002946164800F08EF800BF40211348FFF72A
:1012100045FF0028F9D00920800201235B06012246
:10122000214600900D4800F07FF800BF04210B48D4
:10123000FFF734FF0028F9D0084800F06FF846B2F5
:1012400000BF20210548FFF729FF0028F9D0202101
:101250000248FFF707FFF0B2F8BD0000005400405D
:10126000FEB506460F4600BF0121C9032A48FFF715
:1012700015FF0128F8D00120400300230122314648
:101280000090254800F050F800BF02212248FFF7E7
:1012900005FF0028F9D039461F4800F043F800BF89
:1012A00040211D48FFF7FAFE0028F9D009208002EE
:1012B00001235B06022231460090174800F034F803
:1012C00000BF04211448FFF7E9FE0028F9D00024EC
:1012D00000250DE000BF04210F48FFF7DFFE0028C6
:1012E000F9D00D4800F01AF801A94855681CC5B29C
:1012F000022DEFDB6846047924024079044300BFE5
:1013000020210548FFF7CAFE0028F9D02021024815
:10131000FFF7A8FE2046FEBD005400400146486A83
:10132000C0B2704781627047F0B50C460021416839
:10133000074D2940A505AD0D1604FF273F043E408B
:1013400035431D43059E354329434160F0BD0000F0
:10135000009800FCFFB581B0064614461F460025E4
:1013600000BF0121C9032948FFF798FE0128F8D0E2
:1013700001204003C3020122314600902348FFF7B9
:10138000D3FF00BF02212148FFF788FE0028F9D0D3
:101390001E480299FFF7C6FF00BF80211B48FFF7D8
:1013A0007DFE0028F9D000200090601CC2B201230D
:1013B0001B0631461548FFF7B7FF00BF022113484F
:1013C000FFF76CFE0028F9D000250CE0795D0F488E
:1013D000FFF7A8FF00BF02210C48FFF75FFE0028BF
:1013E000F9D0681C45B2A542F0DB01210748FFF7A0
:1013F00047FE00BF20210548FFF750FE0028F9D026
:1014000020210248FFF72EFE05B0F0BD0054004039
:10141000F8B504460E46154600BF0121C903204811
:10142000FFF73CFE0128F8D001204003C30201224F
:10143000214600901A48FFF777FF00BF02211848A5
:10144000FFF72CFE0028F9D031461548FFF76AFF58
:1014500000BF80211248FFF721FE0028F9D00020AC
:1014600001235B060122214600900D48FFF75CFF37
:1014700000BF02210A48FFF711FE0028F9D02946D3
:101480000748FFF74FFF00BF20210548FFF706FE82
:101490000028F9D020210248FFF7E4FDF8BD000044
:1014A00000540040FEB506460F46154600BF012118
:1014B000C9032B48FFF7F2FD0128F8D001204003B3
:1014C000C3020122314600902548FFF72DFF00BFDF
:1014D00002212348FFF7E2FD0028F9D039462048D1
:1014E000FFF720FF00BF80211D48FFF7D7FD002830
:1014F000F9D0002001231B06032231460090184832
:10150000FFF712FF00BF02211548FFF7C7FD0028B3
:10151000F9D0684645712912017100240DE001A837
:10152000015D0F48FFF7FEFE00BF02210C48FFF7E8
:10153000B5FD0028F9D0601CC4B2022CEFDB0121FC
:101540000748FFF79DFD00BF20210548FFF7A6FDD6
:101550000028F9D020210248FFF784FDFEBD0000DD
:1015600000540040FEB506460F46144600BF012158
:10157000C9032F48FFF792FD0128F8D0012040034E
:10158000C3020122314600902948FFF7CDFE00BF7B
:1015900002212748FFF782FD0028F9D03946244868
:1015A000FFF7C0FE00BF80212148FFF777FD00282C
:1015B000F9D0002001231B060522314600901C486B
:1015C000FFF7B2FE00BF02211948FFF767FD0028B0
:1015D000F9D06846C4712004010E6846817120026A
:1015E000010E68464171210E017100250DE001A830
:1015F000415D0F48FFF796FE00BF02210C48FFF740
:101600004DFD0028F9D0681CC5B2042DEFDB012187
:101610000748FFF735FD00BF20210548FFF73EFDD5
:101620000028F9D020210248FFF71CFDFEBD000074
:101630000054004000218278002A27D0184A032352
:101640001B02D21803789B109B00D1580278920796
:10165000D30EFF229A400B469343194642789207D5
:10166000120E03789B07DB0E9A4011430C4A0323AA
:101670001B02D21803789B109B00D1500278D3062E
:10168000DB0E01229A40064B1A6007E00278D3066F
:10169000DB0E01229A40024B80331A607047000033
:1016A00000E100E000B58BB00121480400F0DEF855
:1016B0000121022000F0EAF8402001900021684654
:1016C000817202210172C1720321417201A90920B4
:1016D000C006FFF749FC012206210920C006FFF7DA
:1016E0008BFC144804900021684681818182C1816D
:1016F000817503A9104800F01FFC60216846018332
:101700000121418304218183002008900221684641
:1017100081840021C184FF2101310185002141859F
:1017200006A9054800F0BEFB0121034800F0A2FB1A
:101730000BB000BD920B000000040040F8B5374824
:1017400001F054FA364A3749374800F0A5FD002227
:101750000121364800F09CFB00223549354800F055
:10176000E5FC35A13548FEF7E1FE002850D134A153
:101770003648FEF75EFE00282AD000F09DFA0446A7
:1017800000F090FA054601F0D1FA064600F058FA4A
:10179000074623462A46314600F098FD2C4801684A
:1017A000532000F007FC01221146204800F070FB96
:1017B00001211E4800F05EFB26A0FEF77FFD2348B6
:1017C000FEF772FE044621462048FEF7ABFE1FE0FE
:1017D00001F0FAFA00F070FA044600F063FA0546E8
:1017E00001F0A4FA064600F02BFA074623462A46E3
:1017F000314600F06BFD16480168532000F0DAFB1B
:1018000017A0FEF75BFD01221146084800F040FBDF
:1018100001220749074800F089FCF8BD5800002064
:101820001E000020220000201A0000200044014079
:101830000501050000380140530000005801002058
:10184000636F6E6E65637465640000006101002063
:1018500030000020436F6E6E65637465640A00009B
:10186000536574757020646F6E650A00002905D099
:10187000054A52690243044B5A6104E0024A526924
:101880008243014B5A61704700100240002905D085
:10189000054AD2690243044BDA6104E0024AD26984
:1018A0008243014BDA61704700100240002905D0E5
:1018B000054A92690243044B9A6104E0024A926924
:1018C0008243014B9A61704700100240002905D005
:1018D000054AD2680243044BDA6004E0024AD26847
:1018E0008243014BDA6070470010024019480068DB
:1018F0000121084317490860084640681649084016
:1019000014494860084600681449084011490860B5
:10191000084600680121890488430E49086008468A
:1019200040683F21090488430A4948600846C06A64
:1019300000090001C8620846006B094908400549D2
:1019400008630846406B40084000486300208860F8
:1019500070470000001002400CB8FF08FFFFF6FEC1
:10196000ACFEF0FFFEB504460025002600200290E4
:10197000019000900027864840680C2108400546E9
:10198000002D06D0042D07D0082D08D00C2D2CD109
:1019900028E0804820602BE07E48206028E07C48DA
:1019A00040680F21890408400646794840680321B1
:1019B000C90308400290B00C861C0298002803D18D
:1019C0007548374647430BE07148C06A0007000F6F
:1019D000401C01906F480199FEF7ECFD70430746EB
:1019E000276005E06D48206002E06A48206000BF83
:1019F00000BF67484068F021084005462D09684847
:101A0000405D009020680099C84060606048406870
:101A100007210902084005462D0A6148405D0090F3
:101A200061680098C140A1605948006BFF210131F5
:101A30000840884202D05B48E0600DE054484068AE
:101A4000012189030840884203D0A0684008E06073
:101A500002E0A0688008E0604D48006B402108402B
:101A6000402802D05048206102E00120C0032061DC
:101A70004748006B10210840102802D0454860619B
:101A800001E0206860614248006B8007800F0028F9
:101A900002D1A068A06119E03D48006B8007800F6B
:101AA000012802D12068A06110E03948006B80074E
:101AB000800F022802D18003A06107E03448006B48
:101AC0008007800F032801D13248A0613048006BA5
:101AD000032109040840002802D1A068E06120E049
:101AE0002B48006B032109040840012109048842A6
:101AF00002D12068E06114E02548006B032109044D
:101B0000084001214904884202D18010E06108E0C8
:101B10001F48006B032109040840884201D11D4879
:101B2000E0611B48006B032189040840002802D1B2
:101B3000A068206220E01648006B03218904084059
:101B400001218904884202D12068206214E01048F3
:101B5000006B0321890408400121C904884202D195
:101B60000011206208E00A48006B03218904084044
:101B7000884201D1074820620548006B8021084057
:101B8000802802D00548606200E06762FEBD000068
:101B90000010024000127A0000093D00006CDC02D7
:101BA00000000020809FD50012800000024840689D
:101BB0000C21084070470000001002400146002040
:101BC000054A5068F02302469A43104602460A43EB
:101BD0001046014A5060704700100240002806D0AD
:101BE0000649096801221143044A116005E00349CE
:101BF000096849084900014A116070470010024015
:101C000001460020064A506807231B0202469A43F9
:101C1000104602460A431046014A506070470000D1
:101C20000010024001460020044A506880088000ED
:101C300002460A431046014A5060704700100240B5
:101C400070B500250024002605E01248FFF792F841
:101C50000419701C86B2642EF7DB64212046FEF75F
:101C6000B3FC04460C48844202D80020054670BDEF
:101C70000A48844202D364200546F8E70649611AFF
:101C80006422514308460649FEF794FC0546A8B273
:101C9000EDE7000000240140760D00007D0F0000FC
:101CA0000702000000B50348FFF730F9C3B2184639
:101CB00000BD00000878000800B50348FFF726F9CA
:101CC000C3B2184600BD000004780008034800684D
:101CD000000603498969401A70470000400000204F
:101CE00000E000E0064800680021020A09061143EE
:101CF0000306044880690022181A914170470000C9
:101D00004000002000E000E002480068401C01495B
:101D100008607047400000200248034948610720DE
:101D200008617047FFFFFF0000E000E0F8B5002504
:101D3000002400260027224840680C210840054660
:101D4000002D04D0042D06D0082D27D107E01D4812
:101D50001D49086026E01B481B49086022E018481E
:101D600040680F2189040840044615484068032153
:101D7000C90308400646A00C841C012000048642CA
:101D800007D139460F48FEF715FC60430E4908603D
:101D900003E00E4860430C49086003E009480A4923
:101DA000086000BF00BF06484068F02108400009F5
:101DB00007490D5C04480068E84003490860F8BD25
:101DC0000010024000127A005400002000093D007B
:101DD0002C32000810B5FFF789FD0120FFF7FEFE49
:101DE0000020FFF7EBFE0020FFF70AFF0020FFF7BF
:101DF00019FF00BFFFF7DAFE0028FBD110BD00007D
:101E00001FB501214804FFF751FD0F480290C11092
:101E10006846818000218181C180817301A90B48BE
:101E200000F08AF815216846017001218170417027
:101E3000FFF700FC00220121044800F029F80021EE
:101E4000024800F017F81FBD3F1F0000004401408A
:101E500010B50120034908700121034800F006F87D
:101E600010BD00001900002000440140CA43028256
:101E700070470000002904D0028801231A43028021
:101E800003E00288014B1A4002807047FEFF000009
:101E9000002A03D083890B43838102E083898B432B
:101EA0008381704770B5002400220023058C1C4EEE
:101EB00035400584028C8388048B194D6F3D2C407E
:101EC000B51E2C400D882C43751E2A408D892A434F
:101ED0004D882A43134DA84208D0134DA84205D07F
:101EE000124DA84202D0124DA84212D10C4DED1F46
:101EF0002A40CD892A430A4DED1E2A408D882A4367
:101F0000074DFF3D2B400B4D2B400D8A2B434D8A37
:101F10002B43838004838D684563028470BD000079
:101F2000FEFF0000002C0140004001400044014041
:101F300000480140FFFD000000220288154B984236
:101F400006D001239B07984202D0134B984203D13D
:101F5000124B1A404B881A43114B984203D0114B35
:101F60001A400B891A4302804B68C3620B880385B1
:101F7000084B984208D00C4B984205D00B4B984226
:101F800002D00B4B984201D18B7A038601238382C6
:101F900070470000002C0140000400408FFF00004B
:101FA00000100040FFFC00000040014000440140E0
:101FB00000480140FEB505460C460848FEF7A6FF5E
:101FC00006466089217A009601910290E388A288F2
:101FD000294603A0FEF772F9FEBD00000078000854
:101FE00025632C25642C25642C25642C25642C2544
:101FF000642C0A0000B58BB001214804FFF736FCC1
:10200000012202210920C006FEF7F6FF012203216A
:102010000920C006FEF7F0FF04200990032108A85C
:1020200041720221017200218172C17209A9092045
:10203000C006FEF799FF08200790022108A801704A
:102040000121C17007A90920C006FEF78DFF0121FB
:102050008803FFF72BFC4B20C00101900020029069
:102060000390049006900C20059001A9094800F007
:102070007FF80121074800F043F80122064905488E
:1020800000F054F81B2001218140044A116000BF78
:102090000BB000BD003801400501050000E100E083
:1020A00010B5134800F0E0F8C4B21248124909789C
:1020B000445411480078401C0F4908700D480078BE
:1020C000532809D108460078401E0A49085C0A28AE
:1020D00002D101200949087007480078401E0549CF
:1020E000085C0A2802D100200349087010BD0000D6
:1020F0000038014058000020500000201800002047
:10210000002904D0026801231A43026003E0026838
:10211000520852000260704702460020D3690B400B
:10212000002B01D0012000E000207047F8B50346E5
:102130000024002600960025002018460E04340EC8
:10214000CEB200960127009EB7403D46022C01D139
:10215000001D02E0032C00D10830002A03D00668DD
:102160002E43066002E00668AE430660F8BD00003C
:10217000F0B58BB004460D46002700200A900026DB
:10218000206840084000206066680321090330464B
:1021900088430646A8680643666026682D480640C0
:1021A000E968686808432969084306432660A66809
:1021B0000321090230468843064668690643A66043
:1021C0006846FFF7CFFB2448844202D106980A9064
:1021D0000DE02248844202D107980A9007E0204887
:1021E000844202D108980A9001E002980A9020687F
:1021F0000121C903084000280CD029680A9A500020
:10220000FEF7D8F9074629680A9A5000FEF7D2F976
:102210000E4609E029680A98FEF7CCF907462968B6
:102220000A98FEF7C7F90E4628684008B04200D861
:102230007F1C20680121C9030840002806D0380708
:10224000460F38460749084030430746A7810BB080
:10225000F0BD0000F3E9FFFF0038014000440040FA
:1022600000480040F0FF00000146888CC005C00D0A
:102270007047CA05D20D02857047000010B50446AC
:10228000FF21A031614308466421FEF79DF9014911
:10229000486310BD0004004070B506460C46154664
:1022A0003046FEF7AFF80849096888802046FEF7F7
:1022B000A9F805490968C8712846FEF7A3F802493C
:1022C0000968887170BD00003C00002010B5064C04
:1022D0002468A080044C2468E180034C24682272A6
:1022E000014C2468638110BD3000002010B50948FE
:1022F000408800280BDD00F06FFC80B2054989881A
:10230000401A04494988884201DD012010BD00209F
:10231000FCE700007C0100200146C8B2FF22120247
:102320000A4012129040401C80B2704710B504461B
:1023300004E07D20C00000F004F8641E002CF8D1F9
:1023400010BD00B50246FFF7C1FCD100431800BF25
:10235000FFF7BCFC181A0028FADC00BD10B50146D6
:102360000022002300290DDD4A1E02E05208581CFD
:1023700083B2100A00020028F8D11802D4B2204318
:1023800080B210BD0020FCE770B504460D46A1B236
:102390000548FFF76EFF00BF80210348FFF7BCFE32
:1023A0000028F9D0204670BD00380140F0B58DB04E
:1023B000244D0F26B601A527BF00234804902248CC
:1023C00064300390384602901F48283801901F4C13
:1023D0000BA800F03FF805A90BA800F050F808A8DA
:1023E000007B002803D0184908984018041908A851
:1023F000807B002806D014496431089840184000BA
:10240000041908E008A8407B002804D0A521890011
:1024100008984018041908A8C07B002804D0A521FA
:10242000890009984018041908A8007C002804D0E5
:10243000054928390A98401804190548846020463F
:102440000DB0F0BD760700004E020000360B000014
:102450007C01002070B50446012000F0A3FC054675
:10246000E806C00F20702807C00FA0706807C00FD3
:1024700060706806C00FE070E811207170BD70B523
:1024800005460C46002000F09DF82080462000F014
:1024900089FC401CA0802178A08800F09DFDE060B0
:1024A000512000F088FC0646FFF736FFE0802178D7
:1024B000E08800F091FD2061012000F083F8608049
:1024C000712000F078FC0646FFF726FF2081E878AF
:1024D000002803D02089E188401A2081A178208932
:1024E00000F07AFD606170BDF8B505460E46012129
:1024F000802000F0B4FD0121FF2000F0B0FD00219C
:10250000084600F0ACFD0621FF2000F0A8FD832066
:1025100000F048FC0421084307463946832000F0B8
:102520009EFD0721FF2000F09AFD0121812000F08F
:1025300096FD0121802000F092FD6B21942000F097
:102540008EFD0021832000F08AFD00F03BFD05E0B8
:10255000FFF7CCFE002801D00020F8BD832000F05A
:1025600021FC0028F4D00121832000F078FD922086
:1025700000F018FC04466006400E2870E011307030
:102580000021812000F06BFD0621FF2000F067FD97
:10259000832000F007FC07463946832000F05FFDEA
:1025A0000121FF2000F05BFD0121002000F057FD1C
:1025B0000021FF2000F053FD0021802000F04FFD9E
:1025C0000120CAE710B50446002C06D1502000F0C7
:1025D000E9FB401C4006000E10BD012C06D1702006
:1025E00000F0E0FB401C4006000EF5E7FF20F3E79B
:1025F00000B589B001214805FFF748F901214804D9
:10260000FFF734F9012080020790022108A8017029
:10261000012181700321417007A90920C006FEF73E
:10262000A3FC01204002079007A90920C006FEF77D
:102630009BFC04220A210920C006FEF7DDFC0422CF
:102640000921C806FEF7D8FC0020039001200003F2
:10265000019000200290094800900020049006900C
:102660000120C003059069460548FEF725FD0121BC
:102670000348FEF7F9FC09B000BD00000D0A002078
:1026800000540040F0B585B00546FFF7B1FFFEF7F6
:10269000D5FC002D09D0892000F084FB01210843DE
:1026A00006463146892000F0DAFC0021882000F03F
:1026B000D6FC0121802000F0D2FC0121FF2000F097
:1026C000CEFC0021084600F0CAFC912000F06AFB15
:1026D000F74948700121002000F0C1FC0021FF20D3
:1026E00000F0BDFC0021802000F0B9FC602000F06B
:1026F00059FB1221084306463146602000F0AFFC2A
:102700007D20C00500F0FEFBFF21012000F0A7FCAA
:1027100003A904A8FFF7E8FE002801D105B0F0BD29
:10272000062201A9B02000F0D3FA0121FF2000F019
:1027300096FC00214F2000F092FC2C214E2000F04E
:102740008EFC0021FF2000F08AFCB421B62000F0AE
:1027500086FC6846007B002801D00C2000E00020A9
:1027600000900024002034E00099884203DB694691
:10277000097C8C4217D10146C3175B0F5B18DB1035
:1027800001AEF35C0246C617760FB618F610F600D7
:10279000871B0126BE40B343C617760F7618F61086
:1027A00001AFBB5513E0C3175B0F1B18DB1001AE65
:1027B000F35C0146C617760F7618F610F600861BF6
:1027C0003341DB07DB0F002B01D0611CCCB2411C75
:1027D000C8B23028C8DB062201A9B02000F034FCC2
:1027E0000121FF2000F03BFC0021084600F037FCEF
:1027F0000021FF2000F033FC0021092000F02FFC15
:102800000021102000F02BFC0021112000F027FCFB
:102810000121242000F023FCFF21252000F01FFCD3
:102820000021752000F01BFC0121FF2000F017FCA7
:102830002C214E2000F013FC0021482000F00FFC5A
:102840002021302000F00BFC0021FF2000F007FCCD
:102850000921302000F003FC0021542000F0FFFB90
:102860000421312000F0FBFB0321322000F0F7FBB4
:102870008321402000F0F3FB2521462000F0EFFBF0
:102880000021602000F0EBFB0021272000F0E7FB97
:102890000621502000F0E3FB0021512000F0DFFB77
:1028A0009621522000F0DBFB0821562000F0D7FBD8
:1028B0003021572000F0D3FB0021612000F0CFFB36
:1028C0000021622000F0CBFB0021642000F0C7FB58
:1028D0000021652000F0C3FBA021662000F0BFFBB3
:1028E0000121FF2000F0BBFB3221222000F0B7FBCA
:1028F0001421472000F0B3FBFF21492000F0AFFB7B
:1029000000214A2000F0ABFB0021FF2000F0A7FBD4
:102910000A217A2000F0A3FB00217B2000F09FFB1E
:102920002121782000F09BFB0121FF2000F097FB84
:102930003421232000F093FB0021422000F08FFB84
:10294000FF21442000F08BFB2621452000F087FB6F
:102950000521462000F083FB4021084600F07FFB64
:1029600006210E2000F07BFB1A21202000F077FBCF
:102970004021432000F073FB0021FF2000F06FFB9B
:102980000321342000F06BFB4421352000F067FB6D
:102990000121FF2000F063FB0421312000F05FFBE8
:1029A00009214B2000F05BFB05214C2000F057FB78
:1029B00004214D2000F053FB0021FF2000F04FFBCD
:1029C0000021442000F04BFB2021452000F047FB74
:1029D0000821472000F043FB2821482000F03FFB5E
:1029E0000021672000F03BFB0421702000F037FB42
:1029F0000121712000F033FBFE21722000F02FFB3B
:102A00000021762000F02BFB0021772000F027FB2F
:102A10000121FF2000F023FB01210D2000F01FFB0E
:102A20000021FF2000F01BFB0121802000F017FB9C
:102A3000F821012000F013FB0121FF2000F00FFB23
:102A400001218E2000F00BFB0121002000F007FB8C
:102A50000021FF2000F003FB0021802000F0FFFA9E
:102A600004210A2000F0FBFA842000F09BF91021D9
:102A7000884306463146842000F0F1FA01210B20FC
:102A800000F0EDFAFFF792FC09498860E821012087
:102A900000F0E5FA0649886800F0B8F90121084617
:102AA00000F0DDFA402000F0F7F8002802D135E60A
:102AB0007C0100200221012000F0D1FA002000F06A
:102AC000EBF8002800D129E6E821012000F0C7FA40
:102AD000012023E6FFF77EF9FFF728F9FFF71CF93D
:102AE0000120FFF7CFFD002000F032FAFFF782FA55
:102AF000FEF7CEF8FEF7D6FDFFF782F900202D494C
:102B0000486356E02C480078002804D0FEF716FEF3
:102B100000202949087029480078002846D0FFF78E
:102B2000CBF80446FFF7BEF8054600F0FFF806466E
:102B3000FFF786F8074623462A463146FFF7C6FBCD
:102B40001F4801685320FFF735FAFFF779F800288E
:102B500010DC1B4801685320FFF72CFA19A0FDF781
:102B6000ADFB002201211A48FFF792F90021184815
:102B7000FFF780F91748FEF7C9F911490968C988B4
:102B800088420DDD13480830FEF7C0F9C0B20028B6
:102B900002D0FEF72FF906E00020FFF76FFB02E0FE
:102BA0000020FFF76BFB002004490870002001495A
:102BB0004863A7E700040040180000201900002027
:102BC000300000204865742050696E0A0000000043
:102BD000004401400078000870B5FFF783F8044610
:102BE0007D2292010023FDF7E7FA70BDFEB5054690
:102BF0002C4602942C210298FDF711FC0446002C6F
:102C000005D0002020701F480299FDF727FC601CAA
:102C1000009000980078632808D1002C31D0002063
:102C2000207019480099FDF719FC2AE0661C2C2138
:102C30003046FDF7F4FB0446002C05D00020207040
:102C400031461248FDF70AFC601C01902C210198C6
:102C5000FDF7E5FB0446002C05D0002020700C4851
:102C60000199FDF7FBFB671C2C213846FDF7D7FBCC
:102C70000446002C05D00020207039460548FDF799
:102C8000EDFBFEBD58010020610100201A0000206C
:102C9000220000201E00002010B504460120204321
:102CA0000146002000F0DBF900F08CF900BF132092
:102CB00000F078F84007400F0028F8D001210B20E1
:102CC00000F0CDF90021084600F0C9F9012010BD3F
:102CD00070B504460D4616462B4632462146522014
:102CE000FEF720FA70BD000010B500F06BF908E0A7
:102CF000FFF7FCFA002804D001200A4908730A48AB
:102D000010BD132000F04EF84007400F0028EFD010
:102D10001E2000F050F8044601210B2000F09FF91E
:102D20002046EDE77C010020FFFF000010B50121E7
:102D3000802000F094F90121FF2000F090F900219B
:102D4000084600F08CF915484178912000F087F989
:102D50000121002000F083F90021FF2000F07FF91D
:102D60000021802000F07BF90121002000F077F99C
:102D700000F028F908E0FFF7B9FA002804D0012094
:102D800006490873064810BD002000F00BF8C00784
:102D9000C00F0028EFD1FFF7A7FFF4E77C01002068
:102DA000FFFF000070B5044621465220FEF70CFAE2
:102DB0000546284670BD70B5044621465220FEF7F0
:102DC0004FFA0546284670BD10B5FEF775F80D4858
:102DD000FEF724F8FEF766F80B480068818809487A
:102DE000FEF79CF808480068C17906480830FEF7ED
:102DF00095F80548006881790248001DFEF78EF8B5
:102E000010BD0000007800083C000020F0B591B033
:102E10000546A520C00008900F2080010790A5203E
:102E20008000069033480590324864300490A52015
:102E3000800003902F48283802902F480190854247
:102E400002D2002011B0F0BD2C4C0FA8FFF702FBFE
:102E500009A90FA8FFF713FB08A8007F002803D0DB
:102E600024490C984018041908A8807F002806D02F
:102E7000204964310C9840184000041908E008A863
:102E8000407F002804D0A52189000C98401804191F
:102E900008A8C07F002804D0A52189000D984018FB
:102EA000041910A80078002821D0124828382418C6
:102EB000AC4201D90020C5E72F1B6846C08CC1B2C7
:102EC000384600F0A5F886B208A8C07F002803D0D5
:102ED0006846408D801986B23046FFF73FFA0146BA
:102EE0000090712000F0C4F80548856000BF012003
:102EF000A8E700004E020000204E0000E808000095
:102F00007C01002070B506460021304600F00CF927
:102F100008D33046FDF7FEFB04460B4A0B4B00F08E
:102F2000CFF801D2002070BD43210906304600F0E1
:102F300025F90546FDF718FC84B22146442000F02F
:102F400097F80120EFE70000A4703D0AD7FF7F400B
:102F500070B504460121802000F081F80121FF2096
:102F600000F07DF80021084600F079F81448417817
:102F7000912000F074F80121002000F070F8002189
:102F8000FF2000F06CF80021802000F068F8002C91
:102F900011D0F820FFF70FFF0546002D02D0204684
:102FA000684304462146042000F06BF80421002009
:102FB00000F055F803E00221002000F050F870BD49
:102FC0007C01002010B5FFF707FE02498880212010
:102FD000488010BD7C01002070B504460D4629468E
:102FE000092212025143094A51430846FF30F53085
:102FF0007D21C900FDF7DEFA0646214671437208BD
:1030000088187D21C900FDF7D5FA70BD770600004C
:1030100070B504460D462946092212025143094A59
:1030200051430846FF30F5307D21C900FDF7C2FA53
:1030300006467D21C9006143720888183146FDF7B4
:10304000B9FA70BD7706000070B504460D46164605
:103050002B46324621465220FEF77CF970BD70B5F2
:1030600004460D462A4621465220FEF7D1F970BD8E
:1030700070B504460D462A4621465220FEF712FA44
:1030800070BD70B504460D462A4621465220FEF713
:1030900069FA70BD10B500290AD00878002807D059
:1030A00005487844FDF742FA002801D0002010BD01
:1030B0000248784410BD0000C2010000BA010000BF
:1030C00070B501251C002D050C4310D4EC4206D42C
:1030D000AC420AD48B4200D070BD824270BDEB423C
:1030E00017D4E94215D48B4270BD9B4270BDEC42AF
:1030F00006D5AC42F9D5994200D070BD904270BD62
:103100006D005C00EC4204D24C00EC4201D29942CA
:1031100070BD0FB4034C0CBC03BC30B4FDF710FC05
:1031200030BC70BD1900160401230200DB050A4300
:103130000DD4DA4203D49A4207D488427047D84269
:1031400014D4D94212D48842704780427047DA4280
:1031500003D59A42F9D5814270475B004200DA42BA
:1031600004D24A00DA4201D28142704710B5024AC5
:10317000FDF72EFC10BD00BF0900160470B542001B
:1031800064414B005C41120E39D01B0E38D0FF2A2F
:103190003CD0FF2B3AD040024902400A490A0600BF
:1031A00045184E43000A090AD2184843ED017F3AF8
:1031B0000104731A4019190C4318990F04D0012106
:1031C0005B0849075B1A521CD80904D3401CF5035D
:1031D00001D19D0607D0FF2A08D2D50506D0E40705
:1031E0002043401970BD0125A843F4E7002A01DC03
:1031F000E00770BD2402FF202043C00570BD1B0EF8
:10320000FF2A03D0FF2B01D0E00770BDFF26450049
:103210003606B54206D84D00B54203D8D218FF2A6B
:1032200000D0E7E7004870BD0000C07F000000004C
:103230000000000001020304060708090000000066
:10324000010203047433000800000020580000004D
:10325000F4000008CC330008580000209807000054
:10326000100100081001000043000000F8FFFFFFFC
:103270000040404040404040404041414141414089
:10328000404040404040404040404040404040403E
:1032900040050202020202020202020202020202CD
:1032A00002202020202020202020200202020202D2
:1032B000020290909090909010101010101010102A
:1032C0001010101010101010101010100202020236
:1032D000020288888888888808080808080808087A
:1032E0000808080808080808080808080202020276
:1032F000400000000000000000000000000000008E
:1033000000000000000000000000000000000000BD
:1033100000000000000000000000000000000000AD
:10332000000000000000000000000000000000009D
:10333000000000000000000000000000000000008D
:10334000000000000000000000000000000000007D
:10335000000000000000000000000000000000006D
:10336000000000000000000000000000000000005D
:103370000000000000000000010203040102030439
:10338000060708090000000000000000000000001F
:10339000000000000000000000000000000000002D
:1033A000000000007001002000000000000000008C
:1033B00034000020010000000000000000000000B8
:0C33C000000000000000000000127A0075
:04000005080000B13E
:00000001FF
