:020000040800F2
:10000000D8070020550100085D0100085F010008C5
:1000100000000000000000000000000000000000E0
:100020000000000000000000000000006101000866
:10003000000000000000000063010008DD1300085C
:100040006701000800000000670100086701000860
:1000500067010008670100086701000867010008E0
:100060000000000067010008670100086701000840
:100070006701000867010008670100080000000030
:100080006701000800000000000000006701000890
:10009000000000002515000867010008670100083E
:1000A000000000006701000800000000451700087C
:1000B00000F002F800F03EF80CA030C80838241810
:1000C0002D18A246671EAB4654465D46AC4201D190
:1000D00000F030F87E460F3E0FCCB6460126334284
:1000E00000D0FB1AA246AB46334318475825000000
:1000F00078250000103A02D378C878C1FAD85207A0
:1001000001D330C830C101D504680C6070470000CD
:100110000023002400250026103A01D378C1FBD823
:10012000520700D330C100D50B6070471FB51FBD0B
:1001300010B510BD00F046FA1146FFF7F7FF01F0C9
:10014000BDFF00F05EFA03B4FFF7F2FF03BC00F05E
:100150008FFA00000748804707480047FEE7FEE7A0
:10016000FEE7FEE7FEE7FEE704480549054A064BC1
:1001700070470000A9140008B1000008D801002051
:10018000D8070020D8030020D8030020FEB505467C
:1001900010460C46184373D0AE468C460020AD1A6C
:1001A00001469C4167D36646002701243D46B61AA6
:1001B0009D4102D313463A462124654676462F04D4
:1001C000360C3E432D0CB61A9D4104D3150C1B046E
:1001D0002B4312041034654676462F06360A3E43FA
:1001E0002D0AB61A9D4104D3150E1B022B43120291
:1001F0000834654676462F0736093E432D09B61A60
:100200009D4104D3150F1B012B431201241D65468C
:100210007646AF07B6083E43AD08B61A9D4104D3F3
:10022000950F9B002B439200A41C65467646EF0772
:1002300076083E436D08B61A9D411AD392185B4169
:10024000641C16E00018764665464941B71A9D4180
:100250000191009009D36046B11A98418E468446B8
:10026000009801990025401C6941DD0752082A4386
:100270005B08641EE6D57246634603B0F0BDFFE737
:1002800000200146C046C0462A462346F5E7002224
:1002900003098B422CD3030A8B4211D300239C46C3
:1002A0004EE003460B433CD4002243088B4231D33B
:1002B00003098B421CD3030A8B4201D394463FE0CF
:1002C000C3098B4201D3CB01C01A524183098B422F
:1002D00001D38B01C01A524143098B4201D34B0118
:1002E000C01A524103098B4201D30B01C01A52417B
:1002F000C3088B4201D3CB00C01A524183088B4202
:1003000001D38B00C01A524143088B4201D34B00EA
:10031000C01A5241411A00D201465241104670475C
:100320005DE0CA0F00D04942031000D34042534061
:1003300000229C4603098B422DD3030A8B4212D321
:10034000FC22890112BA030A8B420CD38901921153
:100350008B4208D3890192118B4204D389013AD090
:10036000921100E08909C3098B4201D3CB01C01A65
:10037000524183098B4201D38B01C01A5241430978
:100380008B4201D34B01C01A524103098B4201D366
:100390000B01C01A5241C3088B4201D3CB00C01AD3
:1003A000524183088B4201D38B00C01A5241D9D2EB
:1003B00043088B4201D34B00C01A5241411A00D26C
:1003C0000146634652415B10104601D34042002B68
:1003D00000D54942704763465B1000D3404201B5E7
:1003E0000020C046C04602BD7047704770470000FD
:1003F0000121C9050123411842001B06D3185B0ED9
:100400000AD0C1100722D206891840075242D142B1
:1004100001D5520089187047090208D50146002A03
:1004200003D0C10FC9070020704710467047420231
:1004300002D0002002497047072109050143F4E773
:100440000000F87F0102C21504D00123DB07194325
:10045000002A0ADB9E239A1A02D40846D04070472D
:10046000FF2241001206914201D900207047C017B7
:10047000C0437047F8B5224C4E00069DA6420AD8EC
:10048000A64201D1002806D15E00A64203D8A642AA
:100490000AD1002A08D00D24240425422CD0294654
:1004A000002000F065F8F8BD0C461C430CD49942BE
:1004B00002D0EFF30080F8BD904202D0EFF300804D
:1004C000F8BDEFF30080F8BD09242407E5008B4256
:1004D00006D0EFF30080A043591A06D2284304E067
:1004E000101A05D3EFF30080A04380F30088F8BD15
:1004F000EFF30080A043F1E7009500F051F8F8BD5C
:100500000000E0FF10B5FF231B0644009C421DD8ED
:100510004C009C421AD80346124A0B4307D4401A97
:1005200002D3EFF3008010BDEFF3008010BD081A76
:1005300006D2EFF3008001219043C907084302E08F
:10054000EFF30080904380F3008810BD0D231B045F
:100550001A4204D01146002000F00AF810BD00F045
:1005600029F810BD00000090004870477801002075
:10057000C80212D54803400F002804D0C803C04366
:10058000012188407047EFF300800001000903213A
:100590000907084380F30088704700207047000077
:1005A00010B500200249029A00F033F810BD000097
:1005B0000000F87F10B5024800F02BF810BD0000D5
:1005C0000000C07F7546FFF7CFFFAE4605006946C5
:1005D0005346C008C000854618B020B5FFF7C4FDDB
:1005E00060BC00274908B6460026C0C5C0C5C0C5C6
:1005F000C0C5C0C5C0C5C0C5C0C5403D49008D46C9
:10060000704710B50446C046C0462046FFF79BFD24
:1006100010BD10B50C461107090F092904D00A298D
:100620000AD008290CD104E011460820FFF7A0FFEA
:1006300006E0510606D501E0510601D50120C007AC
:10064000214610BDD10607D501010909CC0849078B
:10065000000E0006044309E0410F20024907000A8A
:100660000143200E00061D22D14101430846E7E761
:1006700001491820ABBEFEE726000200704710B506
:100680000B460021846A1C43846200BF0C4614435D
:100690002146416110BD002904D0826801231A431C
:1006A000826003E0826802231A4382607047000080
:1006B00000B589B00121480400F094FC01214802F2
:1006C00000F0B0FC01200190032168460172002176
:1006D000C17201A90920C00600F097F8154800F082
:1006E0002BF803A800F089F8002003900121684648
:1006F0000174002005900790089003A90D4800F0B0
:1007000061F8072201210B48FFF7B9FF094800F003
:1007100023F801210748FFF7BEFF00BF012105486C
:1007200000F038F80028F9D0024800F061F809B06C
:1007300000BD00000024014010B504460548844275
:1007400007D10121401500F07DFC0021601500F06B
:1007500079FC10BD0024014030B501460020002284
:1007600000238C680125ED072C438C6000BF8C684A
:10077000E30FDB07521C0F242403A24201D0002BFD
:10078000F5D18C68E40FE407002C01D1086C00E07F
:10079000002030BD30B5024600200023012424068D
:1007A0000C40002C05D0946801252D06AC4323464F
:1007B00000E013681C460C40002C01D0012000E032
:1007C000002030BD10B50022C268084B1A400C79D9
:1007D00064030B6823438C682343CC6823430C6970
:1007E00023434C6923431A43C26010BD03D2FFFF69
:1007F000816804221143816070470021016001710A
:100800008160C160016141617047F0B50A46002115
:100810000023002400BF3DE001258D402B461568D4
:100820001D402C469C4234D11579012D02D01579FA
:10083000022D16D185684F000326BE40B543856062
:1008400055794E00B5408668354385608588012618
:100850008E40B5438580858896798E40B6B2354303
:10086000858005684F000326BE40B54305601579B5
:100870004E00B540066835430560C5684F00032645
:10088000BE40B543C560D5794E00B540C668354316
:10089000C560491C1029BFD3F0BDF0B5002300246A
:1008A0004D07EE0E1546B5402B46CD10AE00054661
:1008B0002035AD594E07F70E0F26BE40B543CE107A
:1008C000B60007462037BD51CD10AE003D46AD59AC
:1008D0001D432C46CD10AD003E467451F0BD1CB5F5
:1008E0000121480400F07EFB0121684601711020BF
:1008F000009000216846C171417169460920C00617
:10090000FFF783FF1CBDC1617047002904D0026856
:1009100001231A43026003E0026852085200026099
:100920007047002905D0426801239B031A434260A7
:1009300004E0426801239B039A434260704710B56C
:1009400002460023002093691C460C402346002BDE
:1009500001D0012000E0002010BD000010B50A46C3
:10096000002103685B085B0003600168144B1940B9
:100970009468240253682343194301600F2424061A
:100980001368A34303610368012423430360002128
:100990008160C1601469936923431946816083684B
:1009A0000124E40323438360D16803680B4303609D
:1009B0004168044B194053691943416010BD000060
:1009C000FFE0CF00FF7FFF07FFB581B00546164669
:1009D0001F4600BF0121C9032348FFF7B0FF0128CC
:1009E000F8D00120400300230122294600901E4830
:1009F00000F0ECF800BF02211B48FFF7A0FF002821
:100A0000F9D01948029900F0DFF800BF40211648DC
:100A1000FFF795FF0028F9D00920800201235B062B
:100A2000324629460090104800F0D0F800240CE02F
:100A300000BF04210C48FFF782FF0028F9D00A48C4
:100A400000F0BEF83855601C44B2B442F0DB00BF81
:100A500020210548FFF773FF0028F9D02021024824
:100A6000FFF751FF05B0F0BD00540040F8B5044653
:100A70000D46002600BF0121C9032148FFF75FFF93
:100A80000128F8D0012040030023012221460090D4
:100A90001B4800F09BF800BF02211948FFF74FFFE9
:100AA0000028F9D02946164800F08EF800BF4021F2
:100AB0001348FFF744FF0028F9D0092080020123E2
:100AC0005B060122214600900D4800F07FF800BF30
:100AD00004210B48FFF733FF0028F9D0084800F045
:100AE0006FF846B200BF20210548FFF728FF002815
:100AF000F9D020210248FFF706FFF0B2F8BD000050
:100B000000540040FEB506460F4600BF0121C90350
:100B10002A48FFF714FF0128F8D0012040030023E2
:100B2000012231460090254800F050F800BF022114
:100B30002248FFF704FF0028F9D039461F4800F08B
:100B400043F800BF40211D48FFF7F9FE0028F9D007
:100B50000920800201235B060222314600901748DB
:100B600000F034F800BF04211448FFF7E8FE002825
:100B7000F9D0002400250DE000BF04210F48FFF745
:100B8000DEFE0028F9D00D4800F01AF801A94855FA
:100B9000681CC5B2022DEFDB684604792402407957
:100BA000044300BF20210548FFF7C9FE0028F9D003
:100BB00020210248FFF7A7FE2046FEBD005400405A
:100BC0000146486AC0B2704781627047F0B50C4672
:100BD00000214168074D2940A505AD0D1604FF27EA
:100BE0003F043E4035431D43059E35432943416044
:100BF000F0BD0000009800FCFFB581B00646144629
:100C00001F46002500BF0121C9032948FFF797FEB1
:100C10000128F8D001204003C30201223146009090
:100C20002348FFF7D3FF00BF02212148FFF787FECB
:100C30000028F9D01E480299FFF7C6FF00BF8021A7
:100C40001B48FFF77CFE0028F9D000200090601CB4
:100C5000C2B201231B0631461548FFF7B7FF00BF9C
:100C600002211348FFF76BFE0028F9D000250CE0A5
:100C7000795D0F48FFF7A8FF00BF02210C48FFF77E
:100C80005EFE0028F9D0681C45B2A542F0DB0121C8
:100C90000748FFF746FE00BF20210548FFF74FFE3B
:100CA0000028F9D020210248FFF72DFE05B0F0BD45
:100CB00000540040F8B504460E46154600BF012119
:100CC000C9032048FFF73BFE0128F8D0012040036C
:100CD000C3020122214600901A48FFF777FF00BFA8
:100CE00002211848FFF72BFE0028F9D0314615489D
:100CF000FFF76AFF00BF80211248FFF720FE00289F
:100D0000F9D0002001235B060122214600900D4806
:100D1000FFF75CFF00BF02210A48FFF710FE002822
:100D2000F9D029460748FFF74FFF00BF20210548AB
:100D3000FFF705FE0028F9D020210248FFF7E3FD68
:100D4000F8BD000000540040FEB506460F461546AB
:100D500000BF0121C9032B48FFF7F1FD0128F8D09E
:100D600001204003C3020122314600902548FFF7CD
:100D70002DFF00BF02212348FFF7E1FD0028F9D035
:100D800039462048FFF720FF00BF80211D48FFF7AC
:100D9000D6FD0028F9D0002001231B06032231468E
:100DA00000901848FFF712FF00BF02211548FFF717
:100DB000C6FD0028F9D0684645712912017100244A
:100DC0000DE001A8015D0F48FFF7FEFE00BF022104
:100DD0000C48FFF7B4FD0028F9D0601CC4B2022C07
:100DE000EFDB01210748FFF79CFD00BF20210548EC
:100DF000FFF7A5FD0028F9D020210248FFF783FD69
:100E0000FEBD000000540040FEB506460F461446E5
:100E100000BF0121C9032F48FFF791FD0128F8D039
:100E200001204003C3020122314600902948FFF708
:100E3000CDFE00BF02212748FFF781FD0028F9D031
:100E400039462448FFF7C0FE00BF80212148FFF744
:100E500076FD0028F9D0002001231B06052231462B
:100E600000901C48FFF7B2FE00BF02211948FFF7AF
:100E700066FD0028F9D06846C4712004010E68465A
:100E800081712002010E68464171210E0171002519
:100E90000DE001A8415D0F48FFF796FE00BF02215B
:100EA0000C48FFF74CFD0028F9D0681CC5B2042D92
:100EB000EFDB01210748FFF734FD00BF2021054883
:100EC000FFF73DFD0028F9D020210248FFF71BFD68
:100ED000FEBD00000054004000218278002A27D087
:100EE000184A03231B02D21803789B109B00D15889
:100EF00002789207D30EFF229A400B46934319467D
:100F000042789207120E03789B07DB0E9A4011433A
:100F10000C4A03231B02D21803789B109B00D1506C
:100F20000278D306DB0E01229A40064B1A6007E0D6
:100F30000278D306DB0E01229A40024B80331A60FE
:100F40007047000000E100E000B58BB001214804CB
:100F500000F048F80121022000F054F840200190F0
:100F6000002168468172022101720121C1720321B0
:100F7000417201A90920C006FFF747FC01220621A2
:100F80000920C006FFF789FC144804900021684638
:100F900081818182C181817503A9114800F03EFBE6
:100FA000602168460183012141830421818300205F
:100FB00008900221684681840021C184FF2101310B
:100FC00001850021418506A9054800F0DDFA0121CF
:100FD000034800F0C1FA0BB000BD0000920B000006
:100FE00000040040002905D0054A52690243044B21
:100FF0005A6104E0024A52698243014B5A617047C8
:1010000000100240002905D0054AD2690243044B72
:10101000DA6104E0024AD2698243014BDA61704727
:1010200000100240002905D0054A92690243044B92
:101030009A6104E0024A92698243014B9A617047C7
:1010400000100240002905D0054AD2680243044B33
:10105000DA6004E0024AD2688243014BDA607047EA
:101060000010024019480068012108431749086030
:101070000846406816490840144948600846006818
:101080001449084011490860084600680121890494
:1010900088430E490860084640683F210904884398
:1010A0000A4948600846C06A00090001C86208464B
:1010B000006B09490840054908630846406B400831
:1010C0004000486300208860704700000010024024
:1010D0000CB8FF08FFFFF6FEACFEF0FFFEB50446BD
:1010E00000250026002002900190009000278648ED
:1010F00040680C2108400546002D06D0042D07D07D
:10110000082D08D00C2D2CD128E0804820602BE041
:101110007E48206028E07C4840680F218904084010
:101120000646794840680321C90308400290B00C84
:10113000861C0298002803D17548374647430BE0C8
:101140007148C06A0007000F401C01906F48019968
:10115000FFF79DF870430746276005E06D48206063
:1011600002E06A48206000BF00BF67484068F02185
:10117000084005462D096848405D009020680099A8
:10118000C840606060484068072109020840054681
:101190002D0A6148405D009061680098C140A160DF
:1011A0005948006BFF2101310840884202D05B485A
:1011B000E0600DE0544840680121890308408842FE
:1011C00003D0A0684008E06002E0A0688008E0600A
:1011D0004D48006B40210840402802D05048206113
:1011E00002E00120C00320614748006B1021084045
:1011F000102802D04548606101E0206860614248E3
:10120000006B8007800F002802D1A068A06119E060
:101210003D48006B8007800F012802D12068A06143
:1012200010E03948006B8007800F022802D180034C
:10123000A06107E03448006B8007800F032801D1CC
:101240003248A0613048006B03210904084000289F
:1012500002D1A068E06120E02B48006B0321090463
:10126000084001210904884202D12068E06114E0AD
:101270002548006B032109040840012149048842E4
:1012800002D18010E06108E01F48006B03210904CF
:101290000840884201D11D48E0611B48006B0321D2
:1012A00089040840002802D1A068206220E0164886
:1012B000006B03218904084001218904884202D17E
:1012C0002068206214E01048006B03218904084064
:1012D0000121C904884202D10011206208E00A48B5
:1012E000006B032189040840884201D1074820622D
:1012F0000548006B80210840802802D005486062C4
:1013000000E06762FEBD00000010024000127A009B
:1013100000093D00006CDC0200000020809FD50029
:1013200012800000024840680C210840704700000D
:101330000010024001460020054A5068F023024692
:101340009A43104602460A431046014A50607047CD
:1013500000100240002806D0064909680122114306
:10136000044A116005E00349096849084900014A37
:10137000116070470010024001460020064A506884
:1013800007231B0202469A43104602460A431046B0
:10139000014A5060704700000010024001460020E2
:1013A000044A50688008800002460A431046014AF9
:1013B0005060704700100240064800680021020A91
:1013C000090611430306044880690022181A914156
:1013D000704700003400002000E000E00248006890
:1013E000401C01490860704734000020024803494E
:1013F0004861072008617047FFFFFF0000E000E040
:10140000F8B50025002400260027224840680C215A
:1014100008400546002D04D0042D06D0082D27D104
:1014200007E01D481D49086026E01B481B4908606D
:1014300022E0184840680F218904084004461548F6
:1014400040680321C90308400646A00C841C012003
:101450000004864207D139460F48FEF718FF604363
:101460000E49086003E00E4860430C49086003E041
:1014700009480A49086000BF00BF06484068F021DB
:101480000840000907490D5C04480068E84003492A
:101490000860F8BD0010024000127A0040000020F1
:1014A00000093D002C26000810B5FFF7DBFD0120E8
:1014B000FFF750FF0020FFF73DFF0020FFF75CFF24
:1014C0000020FFF76BFF00BFFFF72CFF0028FBD1C8
:1014D00010BD00001FB501214804FFF7A3FD0F4810
:1014E0000290C1106846818000218181C180817392
:1014F00001A90B4800F092F81521684601700121FE
:1015000081704170FFF7E8FC00220121044800F0DF
:1015100031F80021024800F01FF81FBD3F1F0000F6
:101520000044014010B50120074908700121074817
:1015300000F00EF80920C006808A102148400921D9
:10154000C906888210BD000011000020004401403F
:10155000CA43028270470000002904D00288012398
:101560001A43028003E00288014B1A400280704750
:10157000FEFF0000002A03D083890B43838102E031
:1015800083898B438381704770B500240022002338
:10159000058C1C4E35400584028C8388048B194DC4
:1015A0006F3D2C40B51E2C400D882C43751E2A40E3
:1015B0008D892A434D882A43134DA84208D0134DE4
:1015C000A84205D0124DA84202D0124DA84212D115
:1015D0000C4DED1F2A40CD892A430A4DED1E2A40AD
:1015E0008D882A43074DFF3D2B400B4D2B400D8A24
:1015F0002B434D8A2B43838004838D68456302848B
:1016000070BD0000FEFF0000002C014000400140C2
:101610000044014000480140FFFD00000022028814
:10162000154B984206D001239B07984202D0134BDA
:10163000984203D1124B1A404B881A43114B9842DF
:1016400003D0114B1A400B891A4302804B68C362C6
:101650000B880385084B984208D00C4B984205D064
:101660000B4B984202D00B4B984201D18B7A0386E8
:101670000123838270470000002C014000040040D9
:101680008FFF000000100040FFFC00000040014000
:10169000004401400048014000B58BB001214804DE
:1016A000FFF7A0FC012202210920C006FFF7F5F890
:1016B000012203210920C006FFF7EFF8042009905A
:1016C000032108A841720221017200218172C172B6
:1016D00009A90920C006FFF798F808200790022101
:1016E00008A801700121C17007A90920C006FFF7F1
:1016F0008CF801218803FFF795FC4B20C001019075
:10170000002002900390049006900C20059001A9FF
:10171000094800F087F80121074800F055F8012238
:101720000649054800F05CF81B2001218140044A6D
:10173000116000BF0BB000BD00380140050105007D
:1017400000E100E010B51B4800F0E8F8C4B21A4808
:101750001A490978445419480078401C1749087000
:1017600017488089C007C00F002809D0124809789F
:10177000405C532804D1002201211148FFF7FAFEF2
:101780000D480078532809D10C480078401E0A49BA
:10179000085C0A2802D101200A490870074800782D
:1017A000401E0549085C0A2802D100200349087040
:1017B00010BD000000380140440000203C00002023
:1017C0000044014010000020002904D002680123D9
:1017D0001A43026003E00268520852000260704738
:1017E000F8B5034600240026009600250020184680
:1017F0000E04340ECEB200960127009EB7403D463F
:10180000022C01D1001D02E0032C00D10830002A77
:1018100003D006682E43066002E00668AE43066009
:10182000F8BD0000F0B58BB004460D46002700203F
:101830000A90002620684008400020606668032166
:101840000903304688430646A86806436660266852
:101850002D480640E968686808432969084306433B
:101860002660A66803210902304688430646686957
:101870000643A6606846FFF731FC2448844202D143
:1018800006980A900DE02248844202D107980A90F7
:1018900007E02048844202D108980A9001E00298AB
:1018A0000A9020680121C903084000280CD029684B
:1018B0000A9A5000FEF7EBFC074629680A9A500086
:1018C000FEF7E5FC0E4609E029680A98FEF7DFFC02
:1018D000074629680A98FEF7DAFC0E462868400891
:1018E000B04200D87F1C20680121C90308400028AD
:1018F00006D03807460F38460749084030430746A8
:10190000A7810BB0F0BD0000F3E9FFFF00380140F4
:101910000044004000480040F0FF00000146888C71
:10192000C005C00D7047000010B509484088002868
:101930000BDD00F0DFFB80B205498988401A0449BD
:101940004988884201DD012010BD0020FCE700002D
:10195000680100200146C8B2FF2212020A4012129A
:101960009040401C80B2704710B501460022002311
:1019700000290DDD4A1E02E05208581C83B2100AED
:1019800000020028F8D11802D4B2204380B210BD62
:101990000020FCE7F0B58DB0244D0F26B601A52739
:1019A000BF002348049022486430039038460290D8
:1019B0001F48283801901F4C0BA800F03FF805A9DC
:1019C0000BA800F050F808A8007B002803D01849A5
:1019D00008984018041908A8807B002806D01449EC
:1019E0006431089840184000041908E008A8407BBA
:1019F000002804D0A521890008984018041908A8D7
:101A0000C07B002804D0A52189000998401804193A
:101A100008A8007C002804D0054928390A984018F5
:101A200004190548846020460DB0F0BD760700001B
:101A30004E020000360B00006801002070B504461D
:101A4000012000F0E7FB0546E806C00F20702807DC
:101A5000C00FA0706807C00F60706806C00FE0700C
:101A6000E811207170BD70B505460C46002000F0ED
:101A70009DF82080462000F0CDFB401CA0802178FE
:101A8000A08800F0BFFCE060512000F0CCFB0646CF
:101A9000FFF760FFE0802178E08800F0B3FC206170
:101AA000012000F083F86080712000F0BCFB064646
:101AB000FFF750FF2081E878002803D02089E188D3
:101AC000401A2081A178208900F09CFC606170BDE3
:101AD000F8B505460E460121802000F0D6FC012114
:101AE000FF2000F0D2FC0021084600F0CEFC0621C9
:101AF000FF2000F0CAFC832000F08CFB0421084387
:101B000007463946832000F0C0FC0721FF2000F083
:101B1000BCFC0121812000F0B8FC0121802000F0F4
:101B2000B4FC6B21942000F0B0FC0021832000F075
:101B3000ACFC00F05DFC05E0FFF7F6FE002801D0EC
:101B40000020F8BD832000F065FB0028F4D00121BF
:101B5000832000F09AFC922000F05CFB04466006B3
:101B6000400E2870E01130700021812000F08DFCC3
:101B70000621FF2000F089FC832000F04BFB074684
:101B80003946832000F081FC0121FF2000F07DFC1C
:101B90000121002000F079FC0021FF2000F075FCFD
:101BA0000021802000F071FC0120CAE710B5044636
:101BB000002C06D1502000F02DFB401C4006000EEA
:101BC00010BD012C06D1702000F024FB401C400603
:101BD000000EF5E7FF20F3E700B589B001214805C5
:101BE000FFF710FA01214804FFF7FCF901208002F9
:101BF0000790022108A80170012181700321417022
:101C000007A90920C006FEF700FE01204002079048
:101C100007A90920C006FEF7F8FD04220A210920C1
:101C2000C006FEF73AFE04220921C806FEF735FE7B
:101C30000020039001200003019000200290094839
:101C400000900020049006900120C0030590694692
:101C50000548FEF783FE01210348FEF756FE09B052
:101C600000BD00000D0A002000540040F0B585B012
:101C70000546FFF7B1FFFEF732FE002D09D089209F
:101C800000F0C8FA0121084306463146892000F0D9
:101C9000FCFB0021882000F0F8FB0121802000F0EF
:101CA000F4FB0121FF2000F0F0FB0021084600F0CA
:101CB000ECFB912000F0AEFAF749487001210020BA
:101CC00000F0E3FB0021FF2000F0DFFB002180207B
:101CD00000F0DBFB602000F09DFA1221084306466D
:101CE0003146602000F0D1FB7D20C00500F020FBD4
:101CF000FF21012000F0C9FB03A904A8FFF7E8FEBB
:101D0000002801D105B0F0BD062201A9B02000F0E5
:101D100017FA0121FF2000F0B8FB00214F2000F04E
:101D2000B4FB2C214E2000F0B0FB0021FF2000F07E
:101D3000ACFBB421B62000F0A8FB6846007B00286D
:101D400001D00C2000E0002000900024002034E0AE
:101D50000099884203DB6946097C8C4217D1014611
:101D6000C3175B0F5B18DB1001AEF35C0246C617AE
:101D7000760FB618F610F600871B0126BE40B34357
:101D8000C617760F7618F61001AFBB5513E0C317D0
:101D90005B0F1B18DB1001AEF35C0146C617760F14
:101DA0007618F610F600861B3341DB07DB0F002B9D
:101DB00001D0611CCCB2411CC8B23028C8DB06225D
:101DC00001A9B02000F056FB0121FF2000F05DFBCF
:101DD0000021084600F059FB0021FF2000F055FBD0
:101DE0000021092000F051FB0021102000F04DFBE4
:101DF0000021112000F049FB0121242000F045FBC7
:101E0000FF21252000F041FB0021752000F03DFB63
:101E10000121FF2000F039FB2C214E2000F035FB82
:101E20000021482000F031FB2021302000F02DFB64
:101E30000021FF2000F029FB0921302000F025FBC4
:101E40000021542000F021FB0421312000F01DFB73
:101E50000321322000F019FB8321402000F015FB04
:101E60002521462000F011FB0021602000F00DFB31
:101E70000021272000F009FB0621502000F005FB7F
:101E80000021512000F001FB9621522000F0FDFAC4
:101E90000821562000F0F9FA3021572000F0F5FA19
:101EA0000021612000F0F1FA0021622000F0EDFA3B
:101EB0000021642000F0E9FA0021652000F0E5FA35
:101EC000A021662000F0E1FA0121FF2000F0DDFAF8
:101ED0003221222000F0D9FA1421472000F0D5FA4F
:101EE000FF21492000F0D1FA00214A2000F0CDFA6C
:101EF0000021FF2000F0C9FA0A217A2000F0C5FA7B
:101F000000217B2000F0C1FA2121782000F0BDFAE9
:101F10000121FF2000F0B9FA3421232000F0B5FAA6
:101F20000021422000F0B1FAFF21442000F0ADFA78
:101F30002621452000F0A9FA0521462000F0A5FA47
:101F40004021084600F0A1FA06210E2000F09DFA7B
:101F50001A21202000F099FA4021432000F095FA40
:101F60000021FF2000F091FA0321342000F08DFAC7
:101F70004421352000F089FA0121FF2000F085FA84
:101F80000421312000F081FA09214B2000F07DFA74
:101F900005214C2000F079FA04214D2000F075FA5B
:101FA0000021FF2000F071FA0021442000F06DFABA
:101FB0002021452000F069FA0821472000F065FA49
:101FC0002821482000F061FA0021672000F05DFA26
:101FD0000421702000F059FA0121712000F055FA17
:101FE000FE21722000F051FA0021762000F04DFA17
:101FF0000021772000F049FA0121FF2000F045FA86
:1020000001210D2000F041FA0021FF2000F03DFAEF
:102010000121802000F039FAF821012000F035FA82
:102020000121FF2000F031FA01218E2000F02DFA6D
:102030000121002000F029FA0021FF2000F025FAFC
:102040000021802000F021FA04210A2000F01DFA6E
:10205000842000F0DFF810218843064631468420B2
:1020600000F013FA01210B2000F00FFAFFF792FCA9
:1020700009498860E821012000F007FA06498868CC
:1020800000F0DAF80121084600F0FFF9402000F0E6
:102090003BF8002802D135E668010020022101202A
:1020A00000F0F3F9002000F02FF8002800D129E615
:1020B000E821012000F0E9F9012023E6FFF7F4F917
:1020C000FFF79EF9FFF792F90120FFF7CFFD0020FF
:1020D00000F054F9FFF7E0FAFEF7EAFAFEF734FFF2
:1020E000FFF7F8F903E000F059F801490880FAE732
:1020F0003000002070B5FFF75FF904467D229201A1
:102100000023FEF743F870BD10B5044601202043BC
:102110000146002000F0B9F900F06AF900BF132071
:1021200000F078F84007400F0028F8D001210B207C
:1021300000F0ABF90021084600F0A7F9012010BD1E
:1021400070B504460D4616462B46324621465220AF
:10215000FEF73AFC70BD000010B500F049F908E048
:10216000FFF7E2FB002804D001200A4908730A485F
:1021700010BD132000F04EF84007400F0028EFD0AC
:102180001E2000F050F8044601210B2000F07DF9DC
:102190002046EDE768010020FFFF000010B5012197
:1021A000802000F072F90121FF2000F06EF900217B
:1021B000084600F06AF915484178912000F065F969
:1021C0000121002000F061F90021FF2000F05DF9FD
:1021D0000021802000F059F90121002000F055F97C
:1021E00000F006F908E0FFF79FFB002804D001206B
:1021F00006490873064810BD002000F00BF8C00720
:10220000C00F0028EFD1FFF7A7FFF4E76801002017
:10221000FFFF000070B5044621465220FEF726FC61
:102220000546284670BD70B5044621465220FEF78B
:1022300069FC0546284670BDF0B591B00546A5205D
:10224000C00008900F2080010790A5208000069014
:1022500033480590324864300490A52080000390F4
:102260002F48283802902F480190854202D2002042
:1022700011B0F0BD2C4C0FA8FFF7E0FB09A90FA887
:10228000FFF7F1FB08A8007F002803D024490C9831
:102290004018041908A8807F002806D0204964311E
:1022A0000C9840184000041908E008A8407F002856
:1022B00004D0A52189000C984018041908A8C07FF3
:1022C000002804D0A52189000D984018041910A8F1
:1022D0000078002821D0124828382418AC4201D9AF
:1022E0000020C5E72F1B6846C08CC1B2384600F0FD
:1022F000A5F886B208A8C07F002803D06846408DA4
:10230000801986B23046FFF72FFB014600907120FE
:1023100000F0C4F80548856000BF0120A8E7000070
:102320004E020000204E0000E80800006801002076
:1023300070B506460021304600F0F6F808D3304666
:10234000FEF756F804460B4A0B4B00F0B9F801D2E1
:10235000002070BD43210906304600F00FF9054604
:10236000FEF770F884B22146442000F097F801206F
:10237000EFE70000A4703D0AD7FF7F4070B5044628
:102380000121802000F081F80121FF2000F07DF87C
:102390000021084600F079F814484178912000F0B7
:1023A00074F80121002000F070F80021FF2000F0F7
:1023B0006CF80021802000F068F8002C11D0F82083
:1023C000FFF731FF0546002D02D020466843044642
:1023D0002146042000F06BF80421002000F055F89D
:1023E00003E00221002000F050F870BD68010020D9
:1023F00010B5FFF77FFE024988802120488010BD7C
:102400006801002070B504460D46294609221202D3
:102410005143094A51430846FF30F5307D21C90038
:10242000FDF735FF064621467143720888187D2165
:10243000C900FDF72CFF70BD7706000070B504469B
:102440000D462946092212025143094A51430846C2
:10245000FF30F5307D21C900FDF719FF06467D21CB
:10246000C9006143720888183146FDF710FF70BD3E
:102470007706000070B504460D4616462B463246D8
:1024800021465220FEF7B8FB70BD70B504460D46DC
:102490002A4621465220FEF70DFC70BD70B5044659
:1024A0000D462A4621465220FEF74EFC70BD70B5FF
:1024B00004460D462A4621465220FEF7A5FC70BD73
:1024C00070B501251C002D050C4310D4EC4206D438
:1024D000AC420AD48B4200D070BD824270BDEB4248
:1024E00017D4E94215D48B4270BD9B4270BDEC42BB
:1024F00006D5AC42F9D5994200D070BD904270BD6E
:102500006D005C00EC4204D24C00EC4201D29942D6
:1025100070BD0FB4034C0CBC03BC30B4FDF7AAFF74
:1025200030BC70BD1900160401230200DB050A430C
:102530000DD4DA4203D49A4207D488427047D84275
:1025400014D4D94212D48842704780427047DA428C
:1025500003D59A42F9D5814270475B004200DA42C6
:1025600004D24A00DA4201D28142704710B5024AD1
:10257000FDF7C8FF10BD00BF0900160470B542008A
:1025800064414B005C41120E39D01B0E38D0FF2A3B
:102590003CD0FF2B3AD040024902400A490A0600CB
:1025A00045184E43000A090AD2184843ED017F3A04
:1025B0000104731A4019190C4318990F04D0012112
:1025C0005B0849075B1A521CD80904D3401CF50369
:1025D00001D19D0607D0FF2A08D2D50506D0E40711
:1025E0002043401970BD0125A843F4E7002A01DC0F
:1025F000E00770BD2402FF202043C00570BD1B0E04
:10260000FF2A03D0FF2B01D0E00770BDFF26450055
:102610003606B54206D84D00B54203D8D218FF2A77
:1026200000D0E7E7004870BD0000C07F0000000058
:102630000000000001020304060708090000000072
:10264000010203046426000800000020440000008A
:10265000F4000008A82600084400002094070000A9
:10266000100100080000000001020304010203043D
:10267000060708090000000000000000000000003C
:10268000000000005C0100200000000000000000CD
:1026900024000020000000000100000000000000F5
:0826A0000000000000127A00A6
:04000005080000B13E
:00000001FF
