:020000040800F2
:10000000A00700206D0100087501000877010008B5
:1000100000000000000000000000000000000000E0
:10002000000000000000000000000000790100084E
:1000300000000000000000007B0100088518000897
:100040007F010008000000007F0100087F01000818
:100050007F0100087F0100087F0100087F01000880
:10006000000000007F0100087F0100087F010008F8
:100070007F0100087F0100087F01000800000000E8
:100080007F01000800000000000000007F01000860
:10009000000000007F0100087F0100087F010008C8
:1000A000000000007F01000800000000851B000820
:1000B00000F002F800F04BF80CA030C80838241803
:1000C0002D18A246671EAB4654465D46AC4201D190
:1000D00000F03DF87E460F3E0FCCB6460126334277
:1000E00000D0FB1AA246AB4633431847982B0000BA
:1000F000B82B0000103A02D378C878C1FAD852075A
:1001000001D330C830C101D504680C6070470000CD
:100110000023002400250026103A01D378C1FBD823
:10012000520700D330C100D50B60704710B5642969
:1001300002D100F027F910BD732902D100F094FB21
:1001400010BD002010BD1FB51FBD10B510BD00F0C3
:1001500077FC1146FFF7F7FF02F0F6F900F08FFC8D
:1001600003B4FFF7F2FF03BC00F0C4FC074880476C
:1001700007480047FEE7FEE7FEE7FEE7FEE7FEE78B
:1001800004480549054A064B704700007D190008E0
:10019000B1000008A0010020A0070020A00300205B
:1001A000A0030020FEB5054610460C46184373D048
:1001B000AE468C460020AD1A01469C4167D3664688
:1001C000002701243D46B61A9D4102D313463A4604
:1001D0002124654676462F04360C3E432D0CB61A74
:1001E0009D4104D3150C1B042B43120410346546A7
:1001F00076462F06360A3E432D0AB61A9D4104D391
:10020000150E1B022B4312020834654676462F0753
:1002100036093E432D09B61A9D4104D3150F1B0123
:100220002B431201241D65467646AF07B6083E43B0
:10023000AD08B61A9D4104D3950F9B002B43920045
:10024000A41C65467646EF0776083E436D08B61A4D
:100250009D411AD392185B41641C16E00018764643
:1002600065464941B71A9D410191009009D3604606
:10027000B11A98418E468446009801990025401C89
:100280006941DD0752082A435B08641EE6D57246C1
:10029000634603B0F0BDFFE700200146C046C046FC
:1002A0002A462346F5E700000FB4054910B503AA16
:1002B000029800F0DDFA10BC08BC04B0184700003A
:1002C00020000020F8B50E4604460020206220469B
:1002D000E1688847002829D0252802D06268A168F3
:1002E00020E0E16820460027884705001ED0284608
:1002F0004138192802D80127FF022035324620460E
:1003000027602946FFF712FF002808D0012804D0F3
:10031000F61DF608F6000836D9E7361DD7E76268FD
:100320002846A1689047206A401CCFE7206AF8BDA4
:1003300070B50C460546012A05D02878800600D500
:10034000EA69002302E0012305E05B1C934202D22C
:10035000E05C0028F9D1A869E618C01AA861286AEB
:10036000C01828622846C046C04604E06A68207863
:10037000A968641C9047B442F8D32846C046C046DA
:1003800070BD0000F7B5002575291068009914A606
:1003900011D0C046C046002802DA404211A608E04B
:1003A000009909688A0701D50FA602E0490704D51C
:1003B0000EA6012501E0C046C046009F0024243758
:1003C00004E000F069FA30313955641C0028F8D196
:1003D0002B4632462146009800F0DBF9FEBD0000B6
:1003E000000000002D0000002B0000002000000095
:1003F000002203098B422CD3030A8B4211D3002322
:100400009C464EE003460B433CD4002243088B42FB
:1004100031D303098B421CD3030A8B4201D3944688
:100420003FE0C3098B4201D3CB01C01A524183097B
:100430008B4201D38B01C01A524143098B4201D335
:100440004B01C01A524103098B4201D30B01C01A60
:100450005241C3088B4201D3CB00C01A52418308DA
:100460008B4201D38B00C01A524143088B4201D307
:100470004B00C01A5241411A00D201465241104667
:1004800070475DE0CA0F00D04942031000D34042DC
:10049000534000229C4603098B422DD3030A8B4212
:1004A00012D3FC22890112BA030A8B420CD38901B0
:1004B00092118B4208D3890192118B4204D3890196
:1004C0003AD0921100E08909C3098B4201D3CB01D4
:1004D000C01A524183098B4201D38B01C01A524189
:1004E00043098B4201D34B01C01A524103098B428D
:1004F00001D30B01C01A5241C3088B4201D3CB0078
:10050000C01A524183088B4201D38B00C01A52415A
:10051000D9D243088B4201D34B00C01A5241411A31
:1005200000D20146634652415B10104601D340425F
:10053000002B00D54942704763465B1000D3404210
:1005400001B50020C046C04602BD704770477047E5
:100550000121C9050123411842001B06D3185B0E77
:100560000AD0C1100722D206891840075242D14250
:1005700001D5520089187047090208D50146002AA2
:1005800003D0C10FC90700207047104670474202D0
:1005900002D0002002497047072109050143F4E712
:1005A0000000F87FF0B5FF252D04C609C209FF271A
:1005B00004462E400137CB093E4348402A402B4099
:1005C0000746002A6BD0002B69D0AA4267D0AB4205
:1005D00065D0002800DA32460125ED0529432C4379
:1005E00009022002090AD21A4B0C7F24E31A434C59
:1005F000000A7C44E35C7D242404121914145B007B
:10060000A218884201D3521C00E0400049420C4627
:100610005C4324115C43DB016415E318040A5C436A
:10062000C502200D0C4644436419250A5D4323038B
:10063000EC0C0D46654300030019EB184C42A34235
:1006400001D35B18401CD4052018002B07D05B0099
:10065000C91804D3401C002901D1400840003F21A3
:1006600089048A4209D3002A08DC1106090F04D044
:10067000032149074018C00FC007F0BD0122410007
:10068000120689187F2252069142F6D205214907A7
:10069000C84201D59010F0BDFF20C005F0BD002F6D
:1006A00000DA32461648AA4207D2AB4205D21902F6
:1006B000090E17D0F80FC007F0BDFF2563002D0607
:1006C000AB42F9D84900A942F6D8AB4201D1A942C0
:1006D000F2D0A94201D1002101E061004908D00512
:1006E0000843F0BD1102090EFBD0FF200243D005E4
:1006F000F0BD0A460146104654E700004E260000B1
:100700000000C07F0102C21504D00123DB0719439A
:10071000002A0ADB9E239A1A02D40846D04070476A
:10072000FF2241001206914201D900207047C017F4
:10073000C04370471F22030C02D10F2200041CD0BB
:10074000030E01D10002083A030F01D10001121F6C
:10075000830F01D18000921E002801DB4000521E51
:10076000D2055118021251181922904004D3491C85
:10077000002801D14908490008467047C10FC90740
:1007800000D04042012292071143D3E7012189079B
:10079000D0E7FFB504460D4681B0243000902168B3
:1007A000880604D51022E0699143216000E0012011
:1007B000A84201DD471B00E000270498A1697A19CF
:1007C0001018081AA0612078C00602D42046C0463E
:1007D000C046002608E003986268A168805D9047E3
:1007E000206A401C761C206204988642F3DB207845
:1007F000C0060AD52046C046C04606E06268A16829
:1008000030209047206A401C206238467F1E002816
:10081000F4DC07E000986268A168405D9047206AB8
:10082000401C206228466D1E0028F3DC2046C0468E
:10083000C0462078000602D5022005B0F0BD012098
:10084000FBE710B54369002B02D0C046C04601E06B
:10085000FFF76EFD012010BD1278014624310A70A9
:1008600000224A700122ECE711680022D243E8E737
:10087000084B70B50D467B4400F0A1F804462846AD
:1008800000F0B0F8002802D00020C04370BD204620
:1008900070BD00008315000001468008081A020997
:1008A0001018020A1018020C1018C0088200121842
:1008B0005200891A01E0401C0A390A29FBD270470C
:1008C000F8B5224C4E00069DA6420AD8A64201D198
:1008D000002806D15E00A64203D8A6420AD1002A0B
:1008E00008D00D24240425422CD02946002000F0F5
:1008F0007DF8F8BD0C461C430CD4994202D0EFF3AE
:100900000080F8BD904202D0EFF30080F8BDEFF315
:100910000080F8BD09242407E5008B4206D0EFF3E0
:100920000080A043591A06D2284304E0101A05D3C8
:10093000EFF30080A04380F30088F8BDEFF3008060
:10094000A043F1E7009500F069F8F8BD0000E0FF72
:1009500010B5FF231B0644009C421DD84C009C424E
:100960001AD80346124A0B4307D4401A02D3EFF3B6
:10097000008010BDEFF3008010BD081A06D2EFF31F
:10098000008001219043C907084302E0EFF3008093
:10099000904380F3008810BD0D231B041A4204D03D
:1009A0001146002000F022F810BD00F041F810BD03
:1009B0000000009001694A1C02610878704700B588
:1009C0008FB002910021059105490193794403916B
:1009D000114604906846FFF775FC0FB000BD00009B
:1009E000E5FFFFFFC068802108407047C80212D5AC
:1009F0004803400F002804D0C803C04301218840A9
:100A00007047EFF300800001000903210907084344
:100A100080F30088704700207047000010B5002068
:100A20000249029A00F033F810BD00000000F87F80
:100A300010B5024800F02BF810BD00000000C07F88
:100A4000754600F053F8AE46050069465346C008A7
:100A5000C000854618B020B5FFF792FB60BC0027A8
:100A60004908B6460026C0C5C0C5C0C5C0C5C0C57A
:100A7000C0C5C0C5C0C5403D49008D46704710B5D2
:100A80000446C046C0462046FFF76AFB10BD10B5BD
:100A90000C461107090F092904D00A290AD0082990
:100AA0000CD104E011460820FFF7A0FF06E0510634
:100AB00006D501E0510601D50120C007214610BD31
:100AC000D10607D501010909CC084907000E000627
:100AD000044309E0410F20024907000A0143200EA8
:100AE00000061D22D14101430846E7E70048704750
:100AF0003C01002001491820ABBEFEE726000200A1
:100B0000704710B50B460021846A1C43846200BF05
:100B10000C4614432146416110BD002904D082686F
:100B200001231A43826003E0826802231A43826031
:100B30007047000000B589B00121480400F060FC56
:100B40000121480200F07CFC01200190032168464D
:100B500001720021C17201A90920C00600F09BF8B2
:100B6000154800F02BF803A800F08DF80020039042
:100B7000012168460174002005900790089003A9A0
:100B80000D4800F065F8072201210B48FFF7B9FF77
:100B9000094800F023F801210748FFF7BEFF00BF16
:100BA0000121054800F03CF80028F9D0024800F087
:100BB00065F809B000BD00000024014010B50446EE
:100BC0000548844207D10121401500F049FC00216D
:100BD000601500F045FC10BD0024014030B5014611
:100BE0000020002200238C680125ED072C438C6037
:100BF00000BF8C68E30FDB07521C0F242403A242C2
:100C000001D0002BF5D18C68E40FE407002C01D152
:100C1000086C00E0002030BD0146086C80B27047CF
:100C200030B5024600200023012424060C40002C8D
:100C300005D0946801252D06AC43234600E01368D7
:100C40001C460C40002C01D0012000E0002030BDEB
:100C500010B50022C268084B1A400C7964030B6877
:100C600023438C682343CC6823430C6923434C699A
:100C700023431A43C26010BD03D2FFFF81680422E0
:100C80001143816070470021016001718160C16082
:100C9000016141617047F0B50A460021002300243C
:100CA00000BF3DE001258D402B4615681D402C46B8
:100CB0009C4234D11579012D02D01579022D16D11F
:100CC00085684F000326BE40B543856055794E00C8
:100CD000B540866835438560858801268E40B543DA
:100CE0008580858896798E40B6B2354385800568C3
:100CF0004F000326BE40B543056015794E00B54050
:100D0000066835430560C5684F000326BE40B543FD
:100D1000C560D5794E00B540C6683543C560491CED
:100D20001029BFD3F0BDF0B5002300244D07EE0E0F
:100D30001546B5402B46CD10AE0005462035AD59C1
:100D40004E07F70E0F26BE40B543CE10B60007463D
:100D50002037BD51CD10AE003D46AD591D432C4648
:100D6000CD10AD003E467451F0BD1CB501214804C4
:100D700000F046FB0121684601711020009000211F
:100D80006846C171417169460920C006FFF783FFBB
:100D90001CBDC1617047002904D0026801231A43B9
:100DA000026003E0026852085200026070470029A6
:100DB00005D0426801239B031A43426004E0426865
:100DC00001239B039A434260704710B502460023FB
:100DD000002093691C460C402346002B01D00120C3
:100DE00000E0002010BD000010B50A460021036895
:100DF0005B085B0003600168144B1940946824028F
:100E000053682343194301600F2424061368A34346
:100E10000361036801242343036000218160C160F2
:100E20001469936923431946816083680124E403AC
:100E300023438360D16803680B4303604168044B1C
:100E4000194053691943416010BD0000FFE0CF0015
:100E5000FF7FFF07FFB581B0054616461F4600BF5E
:100E60000121C9032348FFF7B0FF0128F8D0012072
:100E7000400300230122294600901E4800F0ECF8B0
:100E800000BF02211B48FFF7A0FF0028F9D0194836
:100E9000029900F0DFF800BF40211648FFF795FFE8
:100EA0000028F9D00920800201235B06324629463A
:100EB0000090104800F0D0F800240CE000BF04219E
:100EC0000C48FFF782FF0028F9D00A4800F0BEF86E
:100ED0003855601C44B2B442F0DB00BF2021054805
:100EE000FFF773FF0028F9D020210248FFF751FFD8
:100EF00005B0F0BD00540040F8B504460D4600268C
:100F000000BF0121C9032148FFF75FFF0128F8D086
:100F10000120400300230122214600901B4800F0DD
:100F20009BF800BF02211948FFF74FFF0028F9D0B6
:100F30002946164800F08EF800BF40211348FFF7FD
:100F400044FF0028F9D00920800201235B0601221A
:100F5000214600900D4800F07FF800BF04210B48A7
:100F6000FFF733FF0028F9D0084800F06FF846B2C9
:100F700000BF20210548FFF728FF0028F9D02021D5
:100F80000248FFF706FFF0B2F8BD00000054004031
:100F9000FEB506460F4600BF0121C9032A48FFF7E8
:100FA00014FF0128F8D0012040030023012231461C
:100FB0000090254800F050F800BF02212248FFF7BA
:100FC00004FF0028F9D039461F4800F043F800BF5D
:100FD00040211D48FFF7F9FE0028F9D009208002C2
:100FE00001235B06022231460090174800F034F8D6
:100FF00000BF04211448FFF7E8FE0028F9D00024C0
:1010000000250DE000BF04210F48FFF7DEFE002899
:10101000F9D00D4800F01AF801A94855681CC5B26E
:10102000022DEFDB6846047924024079044300BFB7
:1010300020210548FFF7C9FE0028F9D020210248E9
:10104000FFF7A7FE2046FEBD005400400146486A57
:10105000C0B2704781627047F0B50C46002141680C
:10106000074D2940A505AD0D1604FF273F043E405E
:1010700035431D43059E354329434160F0BD0000C3
:10108000009800FCFFB581B0064614461F460025B7
:1010900000BF0121C9032948FFF797FE0128F8D0B6
:1010A00001204003C3020122314600902348FFF78C
:1010B000D3FF00BF02212148FFF787FE0028F9D0A7
:1010C0001E480299FFF7C6FF00BF80211B48FFF7AB
:1010D0007CFE0028F9D000200090601CC2B20123E1
:1010E0001B0631461548FFF7B7FF00BF0221134822
:1010F000FFF76BFE0028F9D000250CE0795D0F4862
:10110000FFF7A8FF00BF02210C48FFF75EFE002892
:10111000F9D0681C45B2A542F0DB01210748FFF772
:1011200046FE00BF20210548FFF74FFE0028F9D0FA
:1011300020210248FFF72DFE05B0F0BD005400400D
:10114000F8B504460E46154600BF0121C9032048E4
:10115000FFF73BFE0128F8D001204003C302012223
:10116000214600901A48FFF777FF00BF0221184878
:10117000FFF72BFE0028F9D031461548FFF76AFF2C
:1011800000BF80211248FFF720FE0028F9D0002080
:1011900001235B060122214600900D48FFF75CFF0A
:1011A00000BF02210A48FFF710FE0028F9D02946A7
:1011B0000748FFF74FFF00BF20210548FFF705FE56
:1011C0000028F9D020210248FFF7E3FDF8BD000018
:1011D00000540040FEB506460F46154600BF0121EB
:1011E000C9032B48FFF7F1FD0128F8D00120400387
:1011F000C3020122314600902548FFF72DFF00BFB2
:1012000002212348FFF7E1FD0028F9D039462048A4
:10121000FFF720FF00BF80211D48FFF7D6FD002803
:10122000F9D0002001231B06032231460090184804
:10123000FFF712FF00BF02211548FFF7C6FD002887
:10124000F9D0684645712912017100240DE001A80A
:10125000015D0F48FFF7FEFE00BF02210C48FFF7BB
:10126000B4FD0028F9D0601CC4B2022CEFDB0121D0
:101270000748FFF79CFD00BF20210548FFF7A5FDAB
:101280000028F9D020210248FFF783FDFEBD0000B1
:1012900000540040FEB506460F46144600BF01212B
:1012A000C9032F48FFF791FD0128F8D00120400322
:1012B000C3020122314600902948FFF7CDFE00BF4E
:1012C00002212748FFF781FD0028F9D0394624483C
:1012D000FFF7C0FE00BF80212148FFF776FD002800
:1012E000F9D0002001231B060522314600901C483E
:1012F000FFF7B2FE00BF02211948FFF766FD002884
:10130000F9D06846C4712004010E6846817120023C
:10131000010E68464171210E017100250DE001A802
:10132000415D0F48FFF796FE00BF02210C48FFF712
:101330004CFD0028F9D0681CC5B2042DEFDB01215B
:101340000748FFF734FD00BF20210548FFF73DFDAA
:101350000028F9D020210248FFF71BFDFEBD000048
:101360000054004000B58BB00121480400F048F85B
:101370000121022000F054F840200190002168462D
:101380008172022101720121C1720321417201A9FE
:101390000920C006FFF77FFC012206210920C006B4
:1013A000FFF7C1FC144804900021684681818182C6
:1013B000C181817503A9114800F03AFB602168469C
:1013C00001830121418304218183002008900221AF
:1013D000684681840021C184FF21013101850021FB
:1013E000418506A9054800F0D9FA0121034800F01B
:1013F000C7FA0BB000BD0000920B000000040040D3
:10140000002905D0054A52690243044B5A6104E0A1
:10141000024A52698243014B5A61704700100240F0
:10142000002905D0054AD2690243044BDA6104E081
:10143000024AD2698243014BDA61704700100240D0
:10144000002905D0054A92690243044B9A6104E0E1
:10145000024A92698243014B9A6170470010024030
:10146000002905D0054AD2680243044BDA6004E043
:10147000024AD2688243014BDA6070470010024092
:101480001948006801210843174908600846406868
:101490001649084014494860084600681449084045
:1014A00011490860084600680121890488430E49F3
:1014B0000860084640683F21090488430A4948609B
:1014C0000846C06A00090001C8620846006B094965
:1014D0000840054908630846406B400840004863DF
:1014E0000020886070470000001002400CB8FF0820
:1014F000FFFFF6FEACFEF0FFFEB504460025002619
:1015000000200290019000900027864840680C213E
:1015100008400546002D06D0042D07D0082D08D020
:101520000C2D2CD128E0804820602BE07E482060E4
:1015300028E07C4840680F21890408400646794825
:1015400040680321C90308400290B00C861C029831
:10155000002803D17548374647430BE07148C06AFD
:101560000007000F401C01906F480199FEF740FFF3
:1015700070430746276005E06D48206002E06A4836
:10158000206000BF00BF67484068F0210840054662
:101590002D096848405D009020680099C84060604F
:1015A0006048406807210902084005462D0A614845
:1015B000405D009061680098C140A1605948006B8F
:1015C000FF2101310840884202D05B48E0600DE015
:1015D00054484068012189030840884203D0A0682C
:1015E0004008E06002E0A0688008E0604D48006BC1
:1015F00040210840402802D05048206102E00120EC
:10160000C00320614748006B10210840102802D019
:101610004548606101E0206860614248006B8007D6
:10162000800F002802D1A068A06119E03D48006B3E
:101630008007800F012802D12068A06110E039489E
:10164000006B8007800F022802D18003A06107E0B1
:101650003448006B8007800F032801D13248A06115
:101660003048006B032109040840002802D1A0681B
:10167000E06120E02B48006B0321090408400121B0
:101680000904884202D12068E06114E02548006B1B
:1016900003210904084001214904884202D1801035
:1016A000E06108E01F48006B0321090408408842FC
:1016B00001D11D48E0611B48006B032189040840EB
:1016C000002802D1A068206220E01648006B0321A8
:1016D0008904084001218904884202D120682062DF
:1016E00014E01048006B0321890408400121C9045B
:1016F000884202D10011206208E00A48006B0321F1
:1017000089040840884201D1074820620548006BDF
:1017100080210840802802D00548606200E06762AE
:10172000FEBD00000010024000127A0000093D00DA
:10173000006CDC0200000020809FD50012800000B9
:10174000024840680C210840704700000010024029
:1017500001460020054A5068F02302469A4310468D
:1017600002460A431046014A50607047001002408A
:10177000002806D00649096801221143044A116075
:1017800005E00349096849084900014A11607047AA
:101790000010024001460020064A506807231B0241
:1017A00002469A43104602460A431046014A5060D8
:1017B000704700000010024001460020044A5068B3
:1017C0008008800002460A431046014A5060704774
:1017D0000010024010B50648FFF71EFA04466420C8
:1017E00060430146C017000D40180003000E10BDF5
:1017F0000024014010B500F007F8002801D00120B6
:1018000010BD0020FCE70000FEB50D48C06A84B2A0
:101810000B48406B85B22046FEF7B8FF0290284681
:10182000FEF7B4FF0749009001F034F901900299E6
:10183000FEF7B8FE074600F027FFC6B23046FEBDF1
:10184000000400400000C842034800680006034945
:101850008969401A704700001C00002000E000E089
:10186000064800680021020A0906114303060448DD
:1018700080690022181A9141704700001C00002066
:1018800000E000E002480068401C01490860704721
:101890001C00002002480349486107200861704786
:1018A000FFFFFF0000E000E010B5FFF7E9FD0120B9
:1018B000FFF75EFF0020FFF74BFF0020FFF76AFFF6
:1018C0000020FFF779FF00BFFFF73AFF0028FBD1A8
:1018D00010BD0000F8B5002500240026002722488E
:1018E00040680C2108400546002D04D0042D06D088
:1018F000082D27D107E01D481D49086026E01B4838
:101900001B49086022E0184840680F2189040840FC
:101910000446154840680321C90308400646A00C48
:10192000841C01200004864207D139460F48FEF787
:101930005FFD60430E49086003E00E4860430C49B8
:10194000086003E009480A49086000BF00BF064874
:101950004068F0210840000907490D5C0448006810
:10196000E84003490860F8BD0010024000127A0008
:101970002800002000093D002C2C000870470000C2
:10198000002904D0028801231A43028003E0028860
:10199000014B1A4002807047FEFF000070B5002422
:1019A00000220023058C1C4E35400584028C838860
:1019B000048B194D6F3D2C40B51E2C400D882C43D7
:1019C000751E2A408D892A434D882A43134DA8420B
:1019D00008D0134DA84205D0124DA84202D0124D96
:1019E000A84212D10C4DED1F2A40CD892A430A4D41
:1019F000ED1E2A408D882A43074DFF3D2B400B4D9D
:101A00002B400D8A2B434D8A2B43838004838D68A2
:101A10004563028470BD0000FEFF0000002C014001
:101A2000004001400044014000480140FFFD00002B
:101A300000220288154B984206D001239B0798424A
:101A400002D0134B984203D1124B1A404B881A43D1
:101A5000114B984203D0114B1A400B891A43028054
:101A60004B68C3620B880385084B984208D00C4B27
:101A7000984205D00B4B984202D00B4B984201D1B3
:101A80008B7A03860123838270470000002C01407B
:101A9000000400408FFF000000100040FFFC000029
:101AA0000040014000440140004801407CB505462B
:101AB0000C46A079A188009101906388228829466C
:101AC00001A0FEF7F1FB7CBD25732C25642C256459
:101AD0002C25642C25640A0000B58BB00121480434
:101AE000FFF78EFC012202210920C006FFF71BF937
:101AF000012203210920C006FFF715F904200990EF
:101B0000032108A841720221017200218172C17271
:101B100009A90920C006FFF7BEF808200790022196
:101B200008A801700121C17007A90920C006FFF7AC
:101B3000B2F801218803FFF783FC4B20C00101901C
:101B4000002002900390049006900C20059001A9BB
:101B5000094800F06FF80121074800F033F801222E
:101B60000649054800F044F81B2001218140044A41
:101B7000116000BF0BB000BD003801400501050039
:101B800000E100E010B50C4800F0D0F8C4B20B48FA
:101B90000B49097844540A480078401C08490870E9
:101BA00008460078401E0549085C0A2802D100203A
:101BB0000349087010BD0000003801402C000020CF
:101BC00024000020002904D0026801231A43026087
:101BD00003E002685208520002607047024600208B
:101BE000D3690B40002B01D0012000E0002070479A
:101BF000F8B503460024002600960025002018466C
:101C00000E04340ECEB200960127009EB7403D462A
:101C1000022C01D1001D02E0032C00D10830002A63
:101C200003D006682E43066002E00668AE430660F5
:101C3000F8BD0000F0B58BB004460D46002700202B
:101C40000A90002620684008400020606668032152
:101C50000903304688430646A8680643666026683E
:101C60002D480640E9686868084329690843064327
:101C70002660A66803210902304688430646686943
:101C80000643A6606846FFF737FC2448844202D129
:101C900006980A900DE02248844202D107980A90E3
:101CA00007E02048844202D108980A9001E0029897
:101CB0000A9020680121C903084000280CD0296837
:101CC0000A9A5000FEF794FB074629680A9A5000CA
:101CD000FEF78EFB0E4609E029680A98FEF788FB9E
:101CE000074629680A98FEF783FB0E4628684008D5
:101CF000B04200D87F1C20680121C9030840002899
:101D000006D03807460F3846074908403043074693
:101D1000A7810BB0F0BD0000F3E9FFFF00380140E0
:101D20000044004000480040F0FF00000146888C5D
:101D3000C005C00D7047CA05D20D0285704700006E
:101D400010B5064C24682080044C24686180034C44
:101D50002468A280014C2468A37110BD18000020E3
:101D600010B50948408800280BDD00F027FC80B240
:101D700005498988401A04494988884201DD0120C3
:101D800010BD0020FCE700002C0100200146C8B275
:101D9000FF2212020A4012129040401C80B270478B
:101DA00010B5044604E07D20C00000F004F8641E75
:101DB000002CF8D110BD00B50246FFF745FDD1005B
:101DC000431800BFFFF740FD181A0028FADC00BDD9
:101DD00010B501460022002300290DDD4A1E02E055
:101DE0005208581C83B2100A00020028F8D11802C9
:101DF000D4B2204380B210BD0020FCE770B5044689
:101E00000D46A1B20548FFF796FF00BF80210348A9
:101E1000FFF7E4FE0028F9D0204670BD00380140ED
:101E2000F0B58DB0244D0F26B601A527BF0023487D
:101E30000490224864300390384602901F482838A6
:101E400001901F4C0BA800F03FF805A90BA800F06B
:101E500050F808A8007B002803D0184908984018BB
:101E6000041908A8807B002806D01449643108981A
:101E700040184000041908E008A8407B002804D05E
:101E8000A521890008984018041908A8C07B0028DB
:101E900004D0A521890009984018041908A8007CDD
:101EA000002804D0054928390A9840180419054823
:101EB000846020460DB0F0BD760700004E020000A1
:101EC000360B00002C01002070B50446012000F004
:101ED000C9FB0546E806C00F20702807C00FA07098
:101EE0006807C00F60706806C00FE070E8112071CD
:101EF00070BD70B505460C46002000F09DF82080AE
:101F0000462000F0AFFB401CA0802178A08800F0A4
:101F1000BFFCE060512000F0AEFB0646FFF736FF45
:101F2000E0802178E08800F0B3FC2061012000F01F
:101F300083F86080712000F09EFB0646FFF726FFC5
:101F40002081E878002803D02089E188401A208188
:101F5000A178208900F09CFC606170BDF8B5054651
:101F60000E460121802000F0D6FC0121FF2000F068
:101F7000D2FC0021084600F0CEFC0621FF2000F034
:101F8000CAFC832000F06EFB042108430746394653
:101F9000832000F0C0FC0721FF2000F0BCFC0121E1
:101FA000812000F0B8FC0121802000F0B4FC6B21FE
:101FB000942000F0B0FC0021832000F0ACFC00F085
:101FC0005DFC05E0FFF7CCFE002801D00020F8BD45
:101FD000832000F047FB0028F4D00121832000F08B
:101FE0009AFC922000F03EFB04466006400E2870EA
:101FF000E01130700021812000F08DFC0621FF20CF
:1020000000F089FC832000F02DFB07463946832031
:1020100000F081FC0121FF2000F07DFC0121002067
:1020200000F079FC0021FF2000F075FC00218020E9
:1020300000F071FC0120CAE710B50446002C06D15F
:10204000502000F00FFB401C4006000E10BD012C7C
:1020500006D1702000F006FB401C4006000EF5E79C
:10206000FF20F3E700B589B001214805FFF7D8F953
:1020700001214804FFF7C4F90120800207900221E2
:1020800008A80170012181700321417007A909206E
:10209000C006FEF700FE01204002079007A90920B4
:1020A000C006FEF7F8FD04220A210920C006FEF74B
:1020B0003AFE04220921C806FEF735FE00200390EF
:1020C00001200003019000200290094800900020A8
:1020D000049006900120C003059069460548FEF76C
:1020E00083FE01210348FEF756FE09B000BD000043
:1020F0000D0A002000540040F0B585B00546FFF7FA
:10210000B1FFFEF732FE002D09D0892000F0AAFAB7
:102110000121084306463146892000F0FCFB0021DE
:10212000882000F0F8FB0121802000F0F4FB012161
:10213000FF2000F0F0FB0021084600F0ECFB9120AE
:1021400000F090FAF74948700121002000F0E3FB0D
:102150000021FF2000F0DFFB0021802000F0DBFBEE
:10216000602000F07FFA12210843064631466020C5
:1021700000F0D1FB7D20C00500F020FBFF210120F5
:1021800000F0C9FB03A904A8FFF7E8FE002801D16D
:1021900005B0F0BD062201A9B02000F035FA0121FA
:1021A000FF2000F0B8FB00214F2000F0B4FB2C21F1
:1021B0004E2000F0B0FB0021FF2000F0ACFBB4216A
:1021C000B62000F0A8FB6846007B002801D00C2058
:1021D00000E0002000900024002034E000998842B4
:1021E00003DB6946097C8C4217D10146C3175B0F9C
:1021F0005B18DB1001AEF35C0246C617760FB6180B
:10220000F610F600871B0126BE40B343C617760FB3
:102210007618F61001AFBB5513E0C3175B0F1B1800
:10222000DB1001AEF35C0146C617760F7618F61088
:10223000F600861B3341DB07DB0F002B01D0611C4E
:10224000CCB2411CC8B23028C8DB062201A9B0209C
:1022500000F056FB0121FF2000F05DFB0021084645
:1022600000F059FB0021FF2000F055FB0021092060
:1022700000F051FB0021102000F04DFB0021112047
:1022800000F049FB0121242000F045FBFF2125201F
:1022900000F041FB0021752000F03DFB0121FF20F3
:1022A00000F039FB2C214E2000F035FB00214820A6
:1022B00000F031FB2021302000F02DFB0021FF2019
:1022C00000F029FB0921302000F025FB00215420DB
:1022D00000F021FB0421312000F01DFB03213220FE
:1022E00000F019FB8321402000F015FB252146203A
:1022F00000F011FB0021602000F00DFB00212720E1
:1023000000F009FB0621502000F005FB00215120C0
:1023100000F001FB9621522000F0FDFA0821562022
:1023200000F0F9FA3021572000F0F5FA0021612081
:1023300000F0F1FA0021622000F0EDFA00216420A3
:1023400000F0E9FA0021652000F0E5FAA0216620FE
:1023500000F0E1FA0121FF2000F0DDFA3221222015
:1023600000F0D9FA1421472000F0D5FAFF214920C6
:1023700000F0D1FA00214A2000F0CDFA0021FF2020
:1023800000F0C9FA0A217A2000F0C5FA00217B206A
:1023900000F0C1FA2121782000F0BDFA0121FF20D0
:1023A00000F0B9FA3421232000F0B5FA00214220D0
:1023B00000F0B1FAFF21442000F0ADFA26214520BB
:1023C00000F0A9FA0521462000F0A5FA40210846B0
:1023D00000F0A1FA06210E2000F09DFA1A2120201B
:1023E00000F099FA4021432000F095FA0021FF20E7
:1023F00000F091FA0321342000F08DFA44213520B9
:1024000000F089FA0121FF2000F085FA0421312033
:1024100000F081FA09214B2000F07DFA05214C20C3
:1024200000F079FA04214D2000F075FA0021FF2018
:1024300000F071FA0021442000F06DFA20214520BF
:1024400000F069FA0821472000F065FA28214820A9
:1024500000F061FA0021672000F05DFA042170208D
:1024600000F059FA0121712000F055FAFE21722086
:1024700000F051FA0021762000F04DFA002177207B
:1024800000F049FA0121FF2000F045FA01210D205A
:1024900000F041FA0021FF2000F03DFA01218020E8
:1024A00000F039FAF821012000F035FA0121FF206F
:1024B00000F031FA01218E2000F02DFA01210020D8
:1024C00000F029FA0021FF2000F025FA00218020E9
:1024D00000F021FA04210A2000F01DFA842000F007
:1024E000C1F81021884306463146842000F013FAD3
:1024F00001210B2000F00FFAFFF792FC09498860D8
:10250000E821012000F007FA0649886800F0DAF8AF
:102510000121084600F0FFF9402000F059F800289A
:1025200002D135E62C0100200221012000F0F3F950
:10253000002000F04DF8002800D129E6E821012014
:1025400000F0E9F9012023E6FFF7AEF9FFF7C2F941
:10255000FFF7A0F90120FFF7CFFD002000F054F9AC
:10256000FFF7BAFAFEF7E6FAFEF7FCFE21E0FFF706
:1025700041F90446FFF748F90546FFF72BF90646EF
:1025800000F04EF8074623462A463146FFF7D8FBAF
:102590000848016808A0FFF789FA0920C006808A68
:1025A000102148400921C90688827D20C000FFF71C
:1025B000F7FBDCE7180000202331000070B5FFF7BF
:1025C0004FF904467D2292010023FDF7EBFD70BD1B
:1025D00010B50446012020430146002000F09BF97D
:1025E00000F04CF900BF132000F03CF84007400F0A
:1025F0000028F8D001210B2000F08DF900210846B9
:1026000000F089F9012010BD70B504460D4616464C
:102610002B46324621465220FEF71CFC70BD0000BE
:1026200010B500F02BF908E0FFF79AFB002804D062
:1026300001200A4908730A4810BD132000F012F85F
:102640004007400F0028EFD01E2000F014F8044689
:1026500001210B2000F05FF92046EDE72C0100205E
:10266000FFFF000070B5044621465220FEF744FCEF
:102670000546284670BD70B5044621465220FEF737
:1026800087FC0546284670BDF8B504462046FEF78F
:1026900039F887B23846FEF779F80546214600F04A
:1026A00051FA00900098FDF753FF05460022044BB5
:1026B00000F04CF901D8781C00E0384680B2F8BD33
:1026C0000000E03FF0B591B00546A520C00008909D
:1026D0000F2080010790A5208000069033480590C8
:1026E000324864300490A520800003902F48283899
:1026F00002902F480190854202D2002011B0F0BD17
:102700002C4C0FA8FFF7E0FB09A90FA8FFF7F1FB7E
:1027100008A8007F002803D024490C984018041909
:1027200008A8807F002806D0204964310C98401802
:102730004000041908E008A8407F002804D0A52123
:1027400089000C984018041908A8C07F002804D0FC
:10275000A52189000D984018041910A800780028B8
:1027600021D0124828382418AC4201D90020C5E7EE
:102770002F1B6846C08CC1B2384600F0A5F886B25F
:1027800008A8C07F002803D06846408D801986B213
:102790003046FFF71DFB01460090712000F0C4F8A1
:1027A0000548856000BF0120A8E700004E02000038
:1027B000204E0000E80800002C01002070B50646FD
:1027C0000021304600F03CF908D33046FDF7C0FE4A
:1027D00004460B4A0B4B00F0B9F801D2002070BD43
:1027E00043210906304600F055F90546FDF78AFFFA
:1027F00084B22146442000F097F80120EFE7000062
:10280000A4703D0AD7FF7F4070B5044601218020A7
:1028100000F081F80121FF2000F07DF8002108463A
:1028200000F079F814484178912000F074F8012103
:10283000002000F070F80021FF2000F06CF800216B
:10284000802000F068F8002C11D0F820FFF713FF6B
:102850000546002D02D02046684304462146042048
:1028600000F06BF80421002000F055F803E002218D
:10287000002000F050F870BD2C01002010B5FFF7CB
:102880009DFE024988802120488010BD2C01002037
:1028900070B504460D462946092212025143094AE1
:1028A00051430846FF30F5307D21C900FDF7A0FDFA
:1028B000064621467143720888187D21C900FDF73C
:1028C00097FD70BD7706000070B504460D46294699
:1028D000092212025143094A51430846FF30F5309C
:1028E0007D21C900FDF784FD06467D21C9006143B5
:1028F000720888183146FDF77BFD70BD7706000031
:1029000070B504460D4616462B46324621465220E7
:10291000FEF7B8FB70BD70B504460D462A46214649
:102920005220FEF70DFC70BD70B504460D462A46D8
:1029300021465220FEF74EFC70BD70B504460D4690
:102940002A4621465220FEF7A5FC70BD70B5012530
:102950001C002D050C4310D4EC4206D4AC420AD422
:102960008B4200D070BD824270BDEB4217D4E94269
:1029700015D48B4270BD9B4270BDEC4206D5AC4273
:10298000F9D5994200D070BD904270BD6D005C00D9
:10299000EC4204D24C00EC4201D2994270BD0FB41B
:1029A000034C0CBC03BC30B4FDF78AFF30BC70BDD7
:1029B0001900160470B501250400ED074C4020D421
:1029C000441A01D2001B0919C60D4B00F2B2FF2AAE
:1029D00029D01B0E2CD000020C02D31A2C43DC4051
:1029E0002843051910D2280A02D3401C6D0611D0C5
:1029F000761EF6058019FF2A00DA70BDC00DC005ED
:102A000070BD694000F0B0F801200543C541521C7B
:102A1000761CE8E764089C40C90161408900E7D161
:102A20000124A043E4E71B0E440200D0034870BD1C
:102A3000002AFCD1C00FC00770BD00BF0000C07FDE
:102A400001230200DB050A430DD4DA4203D49A4283
:102A500007D488427047D84214D4D94212D488424D
:102A6000704780427047DA4203D59A42F9D58142D5
:102A700070475B004200DA4204D24A00DA4201D2D7
:102A80008142704710B5024AFDF762FF10BD00BFDA
:102A90000900160470B5420064414B005C41120EFF
:102AA00039D01B0E38D0FF2A3CD0FF2B3AD0400241
:102AB0004902400A490A060045184E43000A090A1D
:102AC000D2184843ED017F3A0104731A4019190CDA
:102AD0004318990F04D001215B0849075B1A521C67
:102AE000D80904D3401CF50301D19D0607D0FF2A65
:102AF00008D2D50506D0E4072043401970BD012552
:102B0000A843F4E7002A01DCE00770BD2402FF209F
:102B10002043C00570BD1B0EFF2A03D0FF2B01D040
:102B2000E00770BDFF2645003606B54206D84D00C9
:102B3000B54203D8D218FF2A00D0E7E7004870BD9D
:102B40000000C07F70B50125ED07684004004C40CF
:102B500002D5694000F008F8FFF732FF70B5012593
:102B60000400ED074C4022D4441A02D26C40001BF2
:102B70000919C60D4B00F2B2FF2A4BD01B0E50D0E4
:102B800000020C02D31A2C43DC40A843051B05D5D8
:102B9000AD0019D36D08761E521E37D0F605280AEF
:102BA00001D2801970BD70416D0603D070BD6940BF
:102BB000FFF706FF9C4009026140490001D0401E1A
:102BC00070BD0124A04370BD6D081DD001202B0CE9
:102BD00001D12D0410302B0E01D12D0208302B0F06
:102BE00001D12D01001DAB0F01D1AD00801CEB0FF9
:102BF00001D16D00401C6D00361A121A680AF505E5
:102C00004019012A02DB70BD002070BDC036300AB9
:102C1000C00770BD1B0E440201D1FF2B00D102483A
:102C200070BD002AF0D070BD0000C07F0000000021
:102C3000000000000102030406070809000000006C
:102C4000010203048182838485868788898B8C8D29
:102C50008E8F919293959697999A9C9D9FA0A2A3EF
:102C6000A5A7A8AAACAEB0B2B3B5B7B9BCBEC0C236
:102C7000C5C7C9CCCED1D4D7D9DCDFE2E6E9ECF0C8
:102C8000F3F7FAFEA42C0008000000202C0000003E
:102C9000F4000008D02C00082C000020740700006D
:102CA00010010008000000000102030401020304F7
:102CB00006070809000000000000000010000020C6
:102CC00001000000000000000000000000127A0077
:04000005080000B13E
:00000001FF
