:020000040800F2
:10000000A0070020650100086D0100086F010008CD
:1000100000000000000000000000000000000000E0
:100020000000000000000000000000007101000856
:10003000000000000000000073010008FD1500082A
:100040007701000800000000770100087701000830
:1000500077010008770100087701000877010008A0
:100060000000000077010008770100087701000810
:100070007701000877010008770100080000000000
:100080007701000800000000000000007701000870
:1000900000000000770100087701000877010008E0
:1000A000000000007701000800000000D1180008DF
:1000B00000F002F800F046F80CA030C80838241808
:1000C0002D18A246671EAB4654465D46AC4201D190
:1000D00000F038F87E460F3E0FCCB646012633427C
:1000E00000D0FB1AA246AB46334318470C2700004A
:1000F0002C270000103A02D378C878C1FAD85207EA
:1001000001D330C830C101D504680C6070470000CD
:100110000023002400250026103A01D378C1FBD823
:10012000520700D330C100D50B60704710B5642969
:1001300002D100F0F9F810BD002010BD1FB51FBDA1
:1001400010B510BD00F058FB1146FFF7F7FF02F0A5
:10015000A1F800F070FB03B4FFF7F2FF03BC00F05E
:10016000A5FB00000748804707480047FEE7FEE779
:10017000FEE7FEE7FEE7FEE704480549054A064BB1
:1001800070470000F5160008B1000008A00100202B
:10019000A0070020A0030020A0030020FEB5054614
:1001A00010460C46184373D0AE468C460020AD1A5C
:1001B00001469C4167D36646002701243D46B61A96
:1001C0009D4102D313463A462124654676462F04C4
:1001D000360C3E432D0CB61A9D4104D3150C1B045E
:1001E0002B4312041034654676462F06360A3E43EA
:1001F0002D0AB61A9D4104D3150E1B022B43120281
:100200000834654676462F0736093E432D09B61A4F
:100210009D4104D3150F1B012B431201241D65467C
:100220007646AF07B6083E43AD08B61A9D4104D3E3
:10023000950F9B002B439200A41C65467646EF0762
:1002400076083E436D08B61A9D411AD392185B4159
:10025000641C16E00018764665464941B71A9D4170
:100260000191009009D36046B11A98418E468446A8
:10027000009801990025401C6941DD0752082A4376
:100280005B08641EE6D57246634603B0F0BDFFE727
:1002900000200146C046C0462A462346F5E7000036
:1002A0000FB4054910B503AA029800F0BDF910BCBF
:1002B00008BC04B01847000020000020F8B50E4626
:1002C0000446002020622046E1688847002829D0A3
:1002D000252802D06268A16820E0E1682046002756
:1002E000884705001ED028464138192802D8012722
:1002F000FF0220353246204627602946FFF716FFC9
:10030000002808D0012804D0F61DF608F6000836AB
:10031000D9E7361DD7E762682846A1689047206A6A
:10032000401CCFE7206AF8BDF7B500257529106895
:10033000009914A611D0C046C046002802DA4042F7
:1003400011A608E0009909688A0701D50FA602E006
:10035000490704D50EA6012501E0C046C046009F0E
:100360000024243704E000F073F930313955641C5F
:100370000028F8D12B4632462146009800F0FCF8C0
:10038000FEBD0000000000002D0000002B0000005A
:1003900020000000002203098B422CD3030A8B4269
:1003A00011D300239C464EE003460B433CD400226D
:1003B00043088B4231D303098B421CD3030A8B427F
:1003C00001D394463FE0C3098B4201D3CB01C01A4D
:1003D000524183098B4201D38B01C01A5241430918
:1003E0008B4201D34B01C01A524103098B4201D306
:1003F0000B01C01A5241C3088B4201D3CB00C01A73
:10040000524183088B4201D38B00C01A52414308EA
:100410008B4201D34B00C01A5241411A00D201460F
:100420005241104670475DE0CA0F00D049420310A8
:1004300000D34042534000229C4603098B422DD3F7
:10044000030A8B4212D3FC22890112BA030A8B429F
:100450000CD3890192118B4208D3890192118B42EE
:1004600004D389013AD0921100E08909C3098B4273
:1004700001D3CB01C01A524183098B4201D38B01B6
:10048000C01A524143098B4201D34B01C01A524159
:1004900003098B4201D30B01C01A5241C3088B429E
:1004A00001D3CB00C01A524183088B4201D38B0089
:1004B000C01A5241D9D243088B4201D34B00C01A13
:1004C0005241411A00D20146634652415B10104628
:1004D00001D34042002B00D54942704763465B1070
:1004E00000D3404201B50020C046C04602BD70475F
:1004F000704770470121C9050123411842001B06BE
:10050000D3185B0E0AD0C1100722D2068918400703
:100510005242D14201D5520089187047090208D5CC
:100520000146002A03D0C10FC907002070471046BA
:100530007047420202D00020024970470721090596
:100540000143F4E70000F87F0102C21504D0012343
:10055000DB071943002A0ADB9E239A1A02D40846B5
:10056000D0407047FF2241001206914201D900207D
:100570007047C017C0437047FFB504460D4681B0B1
:10058000243000902168880604D51022E069914348
:10059000216000E00120A84201DD471B00E00027A8
:1005A0000498A1697A191018081AA0612078C00669
:1005B00002D42046C046C046002608E00398626880
:1005C000A168805D9047206A401C761C20620498D8
:1005D0008642F3DB2078C0060AD52046C046C046D6
:1005E00006E06268A16830209047206A401C2062C3
:1005F00038467F1E0028F4DC07E000986268A16896
:10060000405D9047206A401C206228466D1E0028ED
:10061000F3DC2046C046C0462078000602D5022002
:1006200005B0F0BD0120FBE7084B70B50D467B44DB
:1006300000F0A1F80446284600F0B0F8002802D0E7
:100640000020C04370BD204670BD0000171500009B
:1006500001468008081A02091018020A1018020C34
:100660001018C008820012185200891A01E0401CBC
:100670000A390A29FBD27047F8B5224C4E00069D74
:10068000A6420AD8A64201D1002806D15E00A642A1
:1006900003D8A6420AD1002A08D00D2424042542FA
:1006A0002CD02946002000F07DF8F8BD0C461C43F4
:1006B0000CD4994202D0EFF30080F8BD904202D0F2
:1006C000EFF30080F8BDEFF30080F8BD09242407A4
:1006D000E5008B4206D0EFF30080A043591A06D202
:1006E000284304E0101A05D3EFF30080A04380F301
:1006F0000088F8BDEFF30080A043F1E7009500F01B
:1007000069F8F8BD0000E0FF10B5FF231B064400A8
:100710009C421DD84C009C421AD80346124A0B43F7
:1007200007D4401A02D3EFF3008010BDEFF300802E
:1007300010BD081A06D2EFF3008001219043C907CB
:10074000084302E0EFF30080904380F3008810BD7F
:100750000D231B041A4204D01146002000F022F899
:1007600010BD00F041F810BD0000009001694A1C66
:1007700002610878704700B58FB0029100210591A1
:100780000549019379440391114604906846FFF7A7
:1007900095FD0FB000BD0000E5FFFFFFC0688021A0
:1007A00008407047C80212D54803400F002804D003
:1007B000C803C043012188407047EFF30080000167
:1007C000000903210907084380F3008870470020CF
:1007D0007047000010B500200249029A00F033F87B
:1007E00010BD00000000F87F10B5024800F02BF8A3
:1007F00010BD00000000C07F754600F053F8AE4603
:10080000050069465346C008C000854618B020B5AB
:10081000FFF7B2FC60BC00274908B6460026C0C5F9
:10082000C0C5C0C5C0C5C0C5C0C5C0C5C0C5403DA8
:1008300049008D46704710B50446C046C046204664
:10084000FFF789FC10BD10B50C461107090F0929E7
:1008500004D00A290AD008290CD104E01146082046
:10086000FFF7A0FF06E0510606D501E0510601D5CD
:100870000120C007214610BDD10607D50101090995
:10088000CC084907000E0006044309E0410F20028E
:100890004907000A0143200E00061D22D1410143F1
:1008A0000846E7E7004870473C010020014918204E
:1008B000ABBEFEE726000200704710B50B460021D4
:1008C000846A1C43846200BF0C4614432146416184
:1008D00010BD002904D0826801231A43826003E01E
:1008E000826802231A4382607047000000B589B015
:1008F0000121480400F060FC0121480200F07CFC6A
:10090000012001900321684601720021C17201A9F2
:100910000920C00600F09BF8154800F02BF803A84A
:1009200000F08DF80020039001216846017400203A
:1009300005900790089003A90D4800F065F807227C
:1009400001210B48FFF7B9FF094800F023F8012106
:100950000748FFF7BEFF00BF0121054800F03CF843
:100960000028F9D0024800F065F809B000BD000089
:100970000024014010B504460548844207D10121F6
:10098000401500F049FC0021601500F045FC10BD49
:100990000024014030B501460020002200238C686D
:1009A0000125ED072C438C6000BF8C68E30FDB074B
:1009B000521C0F242403A24201D0002BF5D18C68D5
:1009C000E40FE407002C01D1086C00E0002030BDEA
:1009D0000146086C80B2704730B502460020002303
:1009E000012424060C40002C05D0946801252D0616
:1009F000AC43234600E013681C460C40002C01D099
:100A0000012000E0002030BD10B50022C268084B74
:100A10001A400C7964030B6823438C682343CC6829
:100A200023430C6923434C6923431A43C26010BD1E
:100A300003D2FFFF816804221143816070470021C7
:100A4000016001718160C160016141617047F0B571
:100A50000A4600210023002400BF3DE001258D400F
:100A60002B4615681D402C469C4234D11579012D2A
:100A700002D01579022D16D185684F000326BE409D
:100A8000B543856055794E00B5408668354385602D
:100A9000858801268E40B5438580858896798E406D
:100AA000B6B23543858005684F000326BE40B54386
:100AB000056015794E00B540066835430560C56888
:100AC0004F000326BE40B543C560D5794E00B54002
:100AD000C6683543C560491C1029BFD3F0BDF0B5C9
:100AE000002300244D07EE0E1546B5402B46CD10D1
:100AF000AE0005462035AD594E07F70E0F26BE4015
:100B0000B543CE10B60007462037BD51CD10AE001C
:100B10003D46AD591D432C46CD10AD003E467451A7
:100B2000F0BD1CB50121480400F046FB01216846D8
:100B300001711020009000216846C1714171694621
:100B40000920C006FFF783FF1CBDC1617047002963
:100B500004D0026801231A43026003E002685208CD
:100B6000520002607047002905D0426801239B03B0
:100B70001A43426004E0426801239B039A434260A7
:100B8000704710B502460023002093691C460C40B4
:100B90002346002B01D0012000E0002010BD000002
:100BA00010B50A46002103685B085B00036001681A
:100BB000144B19409468240253682343194301607D
:100BC0000F2424061368A34303610368012423430D
:100BD000036000218160C160146993692343194651
:100BE000816083680124E40323438360D168036840
:100BF0000B4303604168044B19405369194341603A
:100C000010BD0000FFE0CF00FF7FFF07FFB581B000
:100C1000054616461F4600BF0121C9032348FFF7BA
:100C2000B0FF0128F8D0012040030023012229460B
:100C300000901E4800F0ECF800BF02211B48FFF7AF
:100C4000A0FF0028F9D01948029900F0DFF800BF92
:100C500040211648FFF795FF0028F9D009208002AF
:100C600001235B06324629460090104800F0D0F878
:100C700000240CE000BF04210C48FFF782FF00288D
:100C8000F9D00A4800F0BEF83855601C44B2B442AE
:100C9000F0DB00BF20210548FFF773FF0028F9D0E3
:100CA00020210248FFF751FF05B0F0BD005400407D
:100CB000F8B504460D46002600BF0121C9032148AE
:100CC000FFF75FFF0128F8D0012040030023012235
:100CD000214600901B4800F09BF800BF02211948F4
:100CE000FFF74FFF0028F9D02946164800F08EF88C
:100CF00000BF40211348FFF744FF0028F9D0092026
:100D0000800201235B060122214600900D4800F07D
:100D10007FF800BF04210B48FFF733FF0028F9D00C
:100D2000084800F06FF846B200BF20210548FFF7E1
:100D300028FF0028F9D020210248FFF706FFF0B273
:100D4000F8BD000000540040FEB506460F4600BF47
:100D50000121C9032A48FFF714FF0128F8D0012018
:100D600040030023012231460090254800F050F84E
:100D700000BF02212248FFF704FF0028F9D03946BE
:100D80001F4800F043F800BF40211D48FFF7F9FE5F
:100D90000028F9D00920800201235B060222314697
:100DA0000090174800F034F800BF04211448FFF702
:100DB000E8FE0028F9D0002400250DE000BF042142
:100DC0000F48FFF7DEFE0028F9D00D4800F01AF8B2
:100DD00001A94855681CC5B2022DEFDB68460479AD
:100DE00024024079044300BF20210548FFF7C9FED3
:100DF0000028F9D020210248FFF7A7FE2046FEBDBB
:100E0000005400400146486AC0B270478162704792
:100E1000F0B50C4600214168074D2940A505AD0DF0
:100E20001604FF273F043E4035431D43059E3543CE
:100E300029434160F0BD0000009800FCFFB581B07F
:100E4000064614461F46002500BF0121C903294854
:100E5000FFF797FE0128F8D001204003C3020122CA
:100E6000314600902348FFF7D3FF00BF02212148FD
:100E7000FFF787FE0028F9D01E480299FFF7C6FF4A
:100E800000BF80211B48FFF77CFE0028F9D000201E
:100E90000090601CC2B201231B0631461548FFF7C3
:100EA000B7FF00BF02211348FFF76BFE0028F9D0FF
:100EB00000250CE0795D0F48FFF7A8FF00BF022175
:100EC0000C48FFF75EFE0028F9D0681C45B2A54229
:100ED000F0DB01210748FFF746FE00BF202105484F
:100EE000FFF74FFE0028F9D020210248FFF72DFE22
:100EF00005B0F0BD00540040F8B504460E46154656
:100F000000BF0121C9032048FFF73BFE0128F8D0AC
:100F100001204003C3020122214600901A48FFF736
:100F200077FF00BF02211848FFF72BFE0028F9D0F9
:100F300031461548FFF76AFF00BF80211248FFF7CE
:100F400020FE0028F9D0002001235B060122214663
:100F500000900D48FFF75CFF00BF02210A48FFF731
:100F600010FE0028F9D029460748FFF74FFF00BFC1
:100F700020210548FFF705FE0028F9D0202102486E
:100F8000FFF7E3FDF8BD000000540040FEB5064643
:100F90000F46154600BF0121C9032B48FFF7F1FD9D
:100FA0000128F8D001204003C302012231460090FD
:100FB0002548FFF72DFF00BF02212348FFF7E1FD81
:100FC0000028F9D039462048FFF720FF00BF8021D4
:100FD0001D48FFF7D6FD0028F9D0002001231B068D
:100FE0000322314600901848FFF712FF00BF02218C
:100FF0001548FFF7C6FD0028F9D06846457129124B
:10100000017100240DE001A8015D0F48FFF7FEFE0D
:1010100000BF02210C48FFF7B4FD0028F9D0601C86
:10102000C4B2022CEFDB01210748FFF79CFD00BF93
:1010300020210548FFF7A5FD0028F9D0202102480E
:10104000FFF783FDFEBD000000540040FEB50646DC
:101050000F46144600BF0121C9032F48FFF791FD39
:101060000128F8D001204003C3020122314600903C
:101070002948FFF7CDFE00BF02212748FFF781FD79
:101080000028F9D039462448FFF7C0FE00BF802170
:101090002148FFF776FD0028F9D0002001231B0628
:1010A0000522314600901C48FFF7B2FE00BF022126
:1010B0001948FFF766FD0028F9D06846C47120047E
:1010C000010E684681712002010E68464171210EB1
:1010D000017100250DE001A8415D0F48FFF796FE64
:1010E00000BF02210C48FFF74CFD0028F9D0681C16
:1010F000C5B2042DEFDB01210748FFF734FD00BF27
:1011000020210548FFF73DFD0028F9D020210248A5
:10111000FFF71BFDFEBD00000054004000B58BB082
:101120000121480400F048F80121022000F054F8A1
:101130004020019000216846817202210172012144
:10114000C1720321417201A90920C006FFF77FFC8B
:10115000012206210920C006FFF7C1FC14480490B3
:101160000021684681818182C181817503A911486E
:1011700000F01AFB602168460183012141830421AC
:101180008183002008900221684681840021C18467
:10119000FF21013101850021418506A9054800F0A4
:1011A000B9FA0121034800F0A7FA0BB000BD000016
:1011B000910B000000040040002905D0054A526947
:1011C0000243044B5A6104E0024A52698243014BD4
:1011D0005A61704700100240002905D0054AD269C3
:1011E0000243044BDA6104E0024AD2698243014BB4
:1011F000DA61704700100240002905D0054A926963
:101200000243044B9A6104E0024A92698243014B13
:101210009A61704700100240002905D0054AD26843
:101220000243044BDA6004E0024AD2688243014B75
:10123000DA60704700100240194800680121084335
:101240001749086008464068164908401449486034
:1012500008460068144908401149086008460068BB
:101260000121890488430E490860084640683F21EF
:10127000090488430A4948600846C06A0009000119
:10128000C8620846006B09490840054908630846DA
:10129000406B4008400048630020886070470000B1
:1012A000001002400CB8FF08FFFFF6FEACFEF0FF96
:1012B000FEB5044600250026002002900190009013
:1012C0000027864840680C2108400546002D06D0BE
:1012D000042D07D0082D08D00C2D2CD128E08048F3
:1012E00020602BE07E48206028E07C4840680F2189
:1012F000890408400646794840680321C90308402C
:101300000290B00C861C0298002803D1754837461D
:1013100047430BE07148C06A0007000F401C019072
:101320006F480199FFF736F870430746276005E0DC
:101330006D48206002E06A48206000BF00BF674837
:101340004068F021084005462D096848405D00903E
:1013500020680099C8406060604840680721090221
:10136000084005462D0A6148405D0090616800987C
:10137000C140A1605948006BFF21013108408842FB
:1013800002D05B48E0600DE05448406801218903C9
:101390000840884203D0A0684008E06002E0A068EE
:1013A0008008E0604D48006B40210840402802D092
:1013B0005048206102E00120C00320614748006BD3
:1013C00010210840102802D04548606101E02068E3
:1013D00060614248006B8007800F002802D1A0683E
:1013E000A06119E03D48006B8007800F012802D101
:1013F0002068A06110E03948006B8007800F022848
:1014000002D18003A06107E03448006B8007800FA1
:10141000032801D13248A0613048006B0321090440
:101420000840002802D1A068E06120E02B48006B52
:1014300003210904084001210904884202D12068DF
:10144000E06114E02548006B0321090408400121F4
:101450004904884202D18010E06108E01F48006B17
:10146000032109040840884201D11D48E0611B485E
:10147000006B032189040840002802D1A068206283
:1014800020E01648006B03218904084001218904EB
:10149000884202D12068206214E01048006B0321CA
:1014A000890408400121C904884202D10011206248
:1014B00008E00A48006B032189040840884201D1F2
:1014C000074820620548006B80210840802802D030
:1014D0000548606200E06762FEBD00000010024047
:1014E00000127A0000093D00006CDC0200000020C0
:1014F000809FD50012800000024840680C210840FF
:10150000704700000010024001460020054A506864
:10151000F02302469A43104602460A431046014A07
:101520005060704700100240002806D00649096844
:1015300001221143044A116005E003490968490882
:101540004900014A11607047001002400146002026
:10155000064A506807231B0202469A431046024679
:101560000A431046014A50607047000000100240D4
:1015700001460020044A50688008800002460A4361
:101580001046014A506070470010024010B50348F1
:10159000FFF71EFA0446204610BD0000002401405B
:1015A00000B500F007F8002801D0012000BD0020A0
:1015B000FCE700000149496B88B270470004004015
:1015C00003480068000603498969401A7047000013
:1015D0001C00002000E000E0064800680021020A2C
:1015E000090611430306044880690022181A914134
:1015F000704700001C00002000E000E00248006886
:10160000401C0149086070471C0000200248034943
:101610004861072008617047FFFFFF0000E000E01D
:1016200010B5FFF709FE0120FFF77EFF0020FFF74E
:101630006BFF0020FFF78AFF0020FFF799FF00BF34
:10164000FFF75AFF0028FBD110BD0000F8B50025B8
:10165000002400260027224840680C210840054647
:10166000002D04D0042D06D0082D27D107E01D48F9
:101670001D49086026E01B481B49086022E0184805
:1016800040680F218904084004461548406803213A
:10169000C90308400646A00C841C012000048642B1
:1016A00007D139460F48FEF775FE60430E490860C2
:1016B00003E00E4860430C49086003E009480A490A
:1016C000086000BF00BF06484068F02108400009DC
:1016D00007490D5C04480068E84003490860F8BD0C
:1016E0000010024000127A002800002000093D008E
:1016F000E027000870470000002904D00288012379
:101700001A43028003E00288014B1A4002807047AE
:10171000FEFF000070B5002400220023058C1C4E43
:1017200035400584028C8388048B194D6F3D2C4015
:10173000B51E2C400D882C43751E2A408D892A43E6
:101740004D882A43134DA84208D0134DA84205D016
:10175000124DA84202D0124DA84212D10C4DED1FDD
:101760002A40CD892A430A4DED1E2A408D882A43FE
:10177000074DFF3D2B400B4D2B400D8A2B434D8ACF
:101780002B43838004838D684563028470BD000011
:10179000FEFF0000002C01400040014000440140D9
:1017A00000480140FFFD000000220288154B9842CE
:1017B00006D001239B07984202D0134B984203D1D5
:1017C000124B1A404B881A43114B984203D0114BCD
:1017D0001A400B891A4302804B68C3620B88038549
:1017E000084B984208D00C4B984205D00B4B9842BE
:1017F00002D00B4B984201D18B7A0386012383825E
:1018000070470000002C0140000400408FFF0000E2
:1018100000100040FFFC0000004001400044014077
:101820000048014000B58BB001214804FFF7C4FC1B
:10183000012202210920C006FFF751F901220321EC
:101840000920C006FFF74BF904200990032108A8DE
:1018500041720221017200218172C17209A909201D
:10186000C006FFF7F4F808200790022108A80170CD
:101870000121C17007A90920C006FFF7E8F801217E
:101880008803FFF7B9FC4B20C001019000200290B3
:101890000390049006900C20059001A9094800F0DF
:1018A0006FF80121074800F033F801220649054886
:1018B00000F044F81B2001218140044A116000BF60
:1018C0000BB000BD003801400501050000E100E05B
:1018D00010B50C4800F0D0F8C4B20B480B49097899
:1018E00044540A480078401C0849087008460078AB
:1018F000401E0549085C0A2802D1002003490870EF
:1019000010BD0000003801402C0000202400002001
:10191000002904D0026801231A43026003E0026830
:10192000520852000260704702460020D3690B4003
:10193000002B01D0012000E000207047F8B50346DD
:101940000024002600960025002018460E04340EC0
:10195000CEB200960127009EB7403D46022C01D131
:10196000001D02E0032C00D10830002A03D00668D5
:101970002E43066002E00668AE430660F8BD000034
:10198000F0B58BB004460D46002700200A900026D3
:101990002068400840002060666803210903304643
:1019A00088430646A8680643666026682D480640B8
:1019B000E968686808432969084306432660A66801
:1019C0000321090230468843064668690643A6603B
:1019D0006846FFF76DFC2448844202D106980A90BD
:1019E0000DE02248844202D107980A9007E020487F
:1019F000844202D108980A9001E002980A90206877
:101A00000121C903084000280CD029680A9A500017
:101A1000FEF7C0FC074629680A9A5000FEF7BAFC98
:101A20000E4609E029680A98FEF7B4FC07462968C3
:101A30000A98FEF7AFFC0E4628684008B04200D86E
:101A40007F1C20680121C9030840002806D0380700
:101A5000460F38460749084030430746A7810BB078
:101A6000F0BD0000F3E9FFFF0038014000440040F2
:101A700000480040F0FF00000146888CC005C00D02
:101A80007047CA05D20D02857047000010B5064C9C
:101A900024682080044C24686180034C2468A28060
:101AA000014C2468A37110BD1800002010B509482E
:101AB000408800280BDD00F033FC80B2054989889E
:101AC000401A04494988884201DD012010BD0020E8
:101AD000FCE700002C0100200146C8B2FF221202E0
:101AE0000A4012129040401C80B2704710B5044664
:101AF00004E07D20C00000F004F8641E002CF8D142
:101B000010BD00B50246FFF75BFDD100431800BFD2
:101B1000FFF756FD181A0028FADC00BD10B5014683
:101B20000022002300290DDD4A1E02E05208581C45
:101B300083B2100A00020028F8D11802D4B2204360
:101B400080B210BD0020FCE770B504460D46A1B27E
:101B50000548FFF796FF00BF80210348FFF7E4FE2A
:101B60000028F9D0204670BD00380140F0B58DB096
:101B7000244D0F26B601A527BF0023480490224814
:101B800064300390384602901F48283801901F4C5B
:101B90000BA800F03FF805A90BA800F050F808A822
:101BA000007B002803D0184908984018041908A899
:101BB000807B002806D01449643108984018400002
:101BC000041908E008A8407B002804D0A52189005A
:101BD00008984018041908A8C07B002804D0A52143
:101BE000890009984018041908A8007C002804D02E
:101BF000054928390A984018041905488460204688
:101C00000DB0F0BD760700004E020000360B00005C
:101C10002C01002070B50446012000F0D5FB0546DC
:101C2000E806C00F20702807C00FA0706807C00F1B
:101C300060706806C00FE070E811207170BD70B56B
:101C400005460C46002000F09DF82080462000F05C
:101C5000BBFB401CA0802178A08800F0ADFCE060B8
:101C6000512000F0BAFB0646FFF736FFE0802178EE
:101C7000E08800F0A1FC2061012000F083F8608082
:101C8000712000F0AAFB0646FFF726FF2081E878C6
:101C9000002803D02089E188401A2081A17820897A
:101CA00000F08AFC606170BDF8B505460E46012162
:101CB000802000F0C4FC0121FF2000F0C0FC0021C6
:101CC000084600F0BCFC0621FF2000F0B8FC832091
:101CD00000F07AFB0421084307463946832000F0D0
:101CE000AEFC0721FF2000F0AAFC0121812000F0BA
:101CF000A6FC0121802000F0A2FC6B21942000F0C2
:101D00009EFC0021832000F09AFC00F04BFC05E0D3
:101D1000FFF7CCFE002801D00020F8BD832000F0A2
:101D200053FB0028F4D00121832000F088FC92208E
:101D300000F04AFB04466006400E2870E011307047
:101D40000021812000F07BFC0621FF2000F077FCC1
:101D5000832000F039FB07463946832000F06FFCF2
:101D60000121FF2000F06BFC0121002000F067FC46
:101D70000021FF2000F063FC0021802000F05FFCC8
:101D80000120CAE710B50446002C06D1502000F00F
:101D90001BFB401C4006000E10BD012C06D170201C
:101DA00000F012FB401C4006000EF5E7FF20F3E7B1
:101DB00000B589B001214805FFF70EFA012148045A
:101DC000FFF7FAF9012080020790022108A80170AC
:101DD000012181700321417007A90920C006FEF787
:101DE00036FE01204002079007A90920C006FEF731
:101DF0002EFE04220A210920C006FEF770FE0422EE
:101E00000921C806FEF76BFE0020039001200003A5
:101E10000190002002900948009000200490069054
:101E20000120C003059069460548FEF7B9FE01216F
:101E30000348FEF78CFE09B000BD00000D0A00202B
:101E400000540040F0B585B00546FFF7B1FFFEF73E
:101E500068FE002D09D0892000F0B6FA0121084360
:101E600006463146892000F0EAFB0021882000F078
:101E7000E6FB0121802000F0E2FB0121FF2000F0C1
:101E8000DEFB0021084600F0DAFB912000F09CFA0E
:101E9000F74948700121002000F0D1FB0021FF200C
:101EA00000F0CDFB0021802000F0C9FB602000F095
:101EB0008BFA1221084306463146602000F0BFFB32
:101EC0007D20C00500F00EFBFF21012000F0B7FBD4
:101ED00003A904A8FFF7E8FE002801D105B0F0BD72
:101EE000062201A9B02000F041FA0121FF2000F0F4
:101EF000A6FB00214F2000F0A2FB2C214E2000F079
:101F00009EFB0021FF2000F09AFBB421B62000F0D8
:101F100096FB6846007B002801D00C2000E00020E2
:101F200000900024002034E00099884203DB6946D9
:101F3000097C8C4217D10146C3175B0F5B18DB107D
:101F400001AEF35C0246C617760FB618F610F6001F
:101F5000871B0126BE40B343C617760F7618F610CE
:101F600001AFBB5513E0C3175B0F1B18DB1001AEAD
:101F7000F35C0146C617760F7618F610F600861B3E
:101F80003341DB07DB0F002B01D0611CCCB2411CBD
:101F9000C8B23028C8DB062201A9B02000F044FBFB
:101FA0000121FF2000F04BFB0021084600F047FB19
:101FB0000021FF2000F043FB0021092000F03FFB3F
:101FC0000021102000F03BFB0021112000F037FB26
:101FD0000121242000F033FBFF21252000F02FFBFE
:101FE0000021752000F02BFB0121FF2000F027FBD2
:101FF0002C214E2000F023FB0021482000F01FFB85
:102000002021302000F01BFB0021FF2000F017FBF7
:102010000921302000F013FB0021542000F00FFBB9
:102020000421312000F00BFB0321322000F007FBDC
:102030008321402000F003FB2521462000F0FFFA19
:102040000021602000F0FBFA0021272000F0F7FAC1
:102050000621502000F0F3FA0021512000F0EFFAA1
:102060009621522000F0EBFA0821562000F0E7FA02
:102070003021572000F0E3FA0021612000F0DFFA60
:102080000021622000F0DBFA0021642000F0D7FA82
:102090000021652000F0D3FAA021662000F0CFFADD
:1020A0000121FF2000F0CBFA3221222000F0C7FAF4
:1020B0001421472000F0C3FAFF21492000F0BFFAA5
:1020C00000214A2000F0BBFA0021FF2000F0B7FAFF
:1020D0000A217A2000F0B3FA00217B2000F0AFFA49
:1020E0002121782000F0ABFA0121FF2000F0A7FAAF
:1020F0003421232000F0A3FA0021422000F09FFAAF
:10210000FF21442000F09BFA2621452000F097FA99
:102110000521462000F093FA4021084600F08FFA8E
:1021200006210E2000F08BFA1A21202000F087FAF9
:102130004021432000F083FA0021FF2000F07FFAC5
:102140000321342000F07BFA4421352000F077FA97
:102150000121FF2000F073FA0421312000F06FFA12
:1021600009214B2000F06BFA05214C2000F067FAA2
:1021700004214D2000F063FA0021FF2000F05FFAF7
:102180000021442000F05BFA2021452000F057FA9E
:102190000821472000F053FA2821482000F04FFA88
:1021A0000021672000F04BFA0421702000F047FA6C
:1021B0000121712000F043FAFE21722000F03FFA65
:1021C0000021762000F03BFA0021772000F037FA5A
:1021D0000121FF2000F033FA01210D2000F02FFA39
:1021E0000021FF2000F02BFA0121802000F027FAC7
:1021F000F821012000F023FA0121FF2000F01FFA4E
:1022000001218E2000F01BFA0121002000F017FAB6
:102210000021FF2000F013FA0021802000F00FFAC7
:1022200004210A2000F00BFA842000F0CDF81021E0
:10223000884306463146842000F001FA01210B2034
:1022400000F0FDF9FFF792FC09498860E8210120C0
:1022500000F0F5F90649886800F0C8F80121084641
:1022600000F0EDF9402000F065F8002802D135E6D5
:102270002C0100200221012000F0E1F9002000F0F3
:1022800059F8002800D129E6E821012000F0D7F90B
:10229000012023E608B5FFF7C3F9FFF7D7F9FFF7E9
:1022A000B5F90120FFF7CEFD002000F041F9FFF75E
:1022B000B9FAFEF71BFBFEF731FF26E0FFF770F9D6
:1022C0000446FFF777F90546FFF760F9064600F088
:1022D00059F8074623462A463146FFF7D7FB0B48F5
:1022E00080790090094883884288018808A0FDF71A
:1022F000D7FF0920C006808A102148400921C9065D
:1023000088827D20C000FFF7F1FBD7E71000002096
:1023100025642C25642C25642C25640A000000000B
:1023200070B5FFF759F904467D2292010023FDF7AD
:1023300035FF70BD10B50446012020430146002042
:1023400000F07DF900F02EF900BF132000F03CF8FA
:102350004007400F0028F8D001210B2000F06FF952
:102360000021084600F06BF9012010BD70B504464D
:102370000D4616462B46324621465220FEF746FCB5
:1023800070BD000010B500F00DF908E0FFF78EFBFE
:10239000002804D001200A4908730A4810BD132000
:1023A00000F012F84007400F0028EFD01E2000F088
:1023B00014F8044601210B2000F041F92046EDE716
:1023C0002C010020FFFF000070B50446214652207A
:1023D000FEF76EFC0546284670BD70B504462146E2
:1023E0005220FEF7B1FC0546284670BDF0B591B00D
:1023F0000546A520C00008900F2080010790A52069
:102400008000069033480590324864300490A5203F
:10241000800003902F48283802902F480190854271
:1024200002D2002011B0F0BD2C4C0FA8FFF7F2FB38
:1024300009A90FA8FFF703FC08A8007F002803D014
:1024400024490C984018041908A8807F002806D059
:10245000204964310C9840184000041908E008A88D
:10246000407F002804D0A52189000C984018041949
:1024700008A8C07F002804D0A52189000D98401825
:10248000041910A80078002821D0124828382418F0
:10249000AC4201D90020C5E72F1B6846C08CC1B2F1
:1024A000384600F0A5F886B208A8C07F002803D0FF
:1024B0006846408D801986B23046FFF72FFB0146F3
:1024C0000090712000F0C4F80548856000BF01202D
:1024D000A8E700004E020000204E0000E8080000BF
:1024E0002C01002070B506460021304600F0F6F8B9
:1024F00008D33046FDF7FEFF04460B4A0B4B00F0B5
:10250000B9F801D2002070BD43210906304600F021
:102510000FF90546FEF718F884B22146442000F072
:1025200097F80120EFE70000A4703D0AD7FF7F4035
:1025300070B504460121802000F081F80121FF20C0
:1025400000F07DF80021084600F079F81448417841
:10255000912000F074F80121002000F070F80021B3
:10256000FF2000F06CF80021802000F068F8002CBB
:1025700011D0F820FFF731FF0546002D02D020468C
:10258000684304462146042000F06BF80421002033
:1025900000F055F803E00221002000F050F870BD73
:1025A0002C01002010B5FFF7BBFE024988802120D6
:1025B000488010BD2C01002070B504460D46294608
:1025C000092212025143094A51430846FF30F530AF
:1025D0007D21C900FDF7DEFE0646214671437208E3
:1025E00088187D21C900FDF7D5FE70BD7706000073
:1025F00070B504460D462946092212025143094A84
:1026000051430846FF30F5307D21C900FDF7C2FE79
:1026100006467D21C9006143720888183146FDF7DE
:10262000B9FE70BD7706000070B504460D4616462B
:102630002B46324621465220FEF700FC70BD70B595
:1026400004460D462A4621465220FEF755FC70BD31
:1026500070B504460D462A4621465220FEF796FCE8
:1026600070BD70B504460D462A4621465220FEF73D
:10267000EDFC70BD70B501251C002D050C4310D478
:10268000EC4206D4AC420AD48B4200D070BD8242E8
:1026900070BDEB4217D4E94215D48B4270BD9B420A
:1026A00070BDEC4206D5AC42F9D5994200D070BD60
:1026B000904270BD6D005C00EC4204D24C00EC42D4
:1026C00001D2994270BD0FB4034C0CBC03BC30B4B2
:1026D000FDF7D2FF30BC70BD1900160401230200C3
:1026E000DB050A430DD4DA4203D49A4207D4884268
:1026F0007047D84214D4D94212D4884270478042DD
:102700007047DA4203D59A42F9D5814270475B009F
:102710004200DA4204D24A00DA4201D281427047D2
:1027200010B5024AFDF7F0FF10BD00BF0900160406
:1027300070B5420064414B005C41120E39D01B0E53
:1027400038D0FF2A3CD0FF2B3AD040024902400A41
:10275000490A060045184E43000A090AD2184843A0
:10276000ED017F3A0104731A4019190C4318990FAF
:1027700004D001215B0849075B1A521CD80904D315
:10278000401CF50301D19D0607D0FF2A08D2D505CC
:1027900006D0E4072043401970BD0125A843F4E7A3
:1027A000002A01DCE00770BD2402FF202043C005A1
:1027B00070BD1B0EFF2A03D0FF2B01D0E00770BDB8
:1027C000FF2645003606B54206D84D00B54203D86F
:1027D000D218FF2A00D0E7E7004870BD0000C07F94
:1027E00000000000000000000102030406070809C1
:1027F0000000000001020304182800080000002067
:102800002C000000F4000008442800082C000020E0
:10281000740700001001000800000000010203041A
:102820000102030406070809000000000000000080
:102830001000002001000000000000000000000067
:0428400000127A0008
:04000005080000B13E
:00000001FF
